:0D010800080900FA8A8A8F8A8AFA01080025
:1000E500E4FDFCEFFBC3ED9BEC94005015E4FBFA3B
:1000F5000BBB00010AEB647D4A70F50DBD00010CD8
:0201050080E197
:0101070022D5
:02008F00AD07BB
:10009100E4FB74017E00A803088005C333CE33CE90
:1000A100D8F9FFEDF582EF558224FF92B4C2B6D2A2
:0900B100B60BBB08DDC2B5D2B5E7
:0100BA002223
:1000BB00AF087480A807088002C313D8FCF4F5803E
:1000CB0074092508F8E6FF12008F7F021200E50580
:0900DB0008E508B40803E4F50887
:0100E40022F9
:050116001200BB80FB9C
:03000000020003F8
:0C000300787FE4F6D8FD75811002004AF9
:10000F00020116E493A3F8E493A34003F68001F2F0
:10001F0008DFF48029E493A3F85407240CC8C333F2
:10002F00C4540F4420C8834004F456800146F6DFC1
:10003F00E4800B0102040810204080900108E47E48
:10004F00019360BCA3FF543F30E509541FFEE493B6
:10005F00A360010ECF54C025E060A840B8E493A37D
:10006F00FAE493A3F8E493A3C8C582C8CAC583CAA8
:10007F00F0A3C8C582C8CAC583CADFE9DEE780BE60
:0101150000E9
:00000001FF
