:1000CF00100A00804020100804020204081020408B
:1000DF008000101A00010204081020404020100870
:0A00EF0004020100010800010900ED
:1000FA00E4FDFCEFFBC3ED9BEC94005015E4FBFA26
:10010A000BBB00010AEB647D4A70F50DBD00010CC2
:02011A0080E182
:01011C0022C0
:10011D00E4FEEFC4131313540124FF92A2EF25E064
:10012D00FFC2A00000D2A00EBE08E7C2A10000D2FF
:01013D00A120
:01013E00229E
:10013F00E4FEEFC4131313540124FF92B2EF25E032
:10014F00FFC2B00000D2B00EBE08E7C2B10000D2AD
:01015F00B1EE
:01016000227C
:10008F00AF087401A807088002C333D8FCF4FF122D
:10009F00013F741A2509F8E6FF12011D740A25099C
:1000AF00F8E6FF12011D7F011200FA05080509E5A8
:0F00BF0008B41003E4F508E509B41003E4F509EB
:0100CE00220F
:0501610012008F80FB7D
:03000000020003F8
:0C000300787FE4F6D8FD75812902004AE0
:10000F00020161E493A3F8E493A34003F68001F2A5
:10001F0008DFF48029E493A3F85407240CC8C333F2
:10002F00C4540F4420C8834004F456800146F6DFC1
:10003F00E4800B01020408102040809000CFE47E82
:10004F00019360BCA3FF543F30E509541FFEE493B6
:10005F00A360010ECF54C025E060A840B8E493A37D
:10006F00FAE493A3F8E493A3C8C582C8CAC583CAA8
:10007F00F0A3C8C582C8CAC583CADFE9DEE780BE60
:0100F9000006
:00000001FF
