:1005A900C100021402BC0216000002180000021267
:1005B900015E02080000020A0000020C0000020E9F
:0605C9000000021000001A
:10036B00E4F524F523F5227521407466F528F5276D
:10037B00F52675253F752C0A752BD7752A237529FC
:10038B003E7F007E00C3E5139519F509E51295181C
:10039B00F508C3E509950BFDE508950AFC1202214A
:1003AB00AB24AA23A922A821120116C004C005C0A0
:1003BB0006C007AC08AD09EC120221AB28AA27A98D
:1003CB0026A825120116D003D002D001D0001200AE
:1003DB0025C004C005C006C007E50B25E0FFE50AF4
:1003EB0033FEC3E5099FFFE5089EFEE50D2FFDE5F6
:1003FB000C3EFC120221AB2CAA2BA92AA829120114
:10040B0016D003D002D001D00012002512025AEFF1
:10041B002515F515EE3514F51485080A85090B8598
:05042B000A0C850B0D19
:0104300022A9
:10070B00D28ED28C758912758DF8758B30758C9C49
:0E071B00758A9CD2AFD2ABD2A9D2A8D28822C6
:0300030002000EEA
:0D000E00C0E00517E51770020516D0E032BE
:03000B00020645A5
:04064500C0E0C0D081
:10064900C3E50F9515E50E95145004D2A58002C295
:10065900A5050FE50F7002050EB4E80BE50EB4030E
:0706690006750E00750F007D
:05067000D0D0D0E03203
:03001B000204BD1F
:1004BD00C0E0C0F0C083C082C0D075D000C000C005
:0D04CD0001C002C003C004C005C006C00786
:1004DA00758DF8758B301205250511E51170020529
:1004EA0010B4F41CE510B4011775100075110085DD
:1004FA001618851719751600751700D20012036BA6
:10050A00D007D006D005D004D003D002D001D00045
:0B051A00D0D0D082D083D0F0D0E032EF
:100613008F2EE52E7002B2A3E52EB40109743225A4
:1006230013F513E4800DE52EB4021674CE2513F5ED
:100633001374FF3512F512AB13FA7D027F01120515
:020643006A2229
:1005DF00752DFF12070B1206EAC2A3C2A4D2A5AB58
:1005EF0013AA127D027F0112056A1206C78F2D1200
:1005FF0006133000F5AB19AA187D02E4FF12056A45
:04060F00C20080E6BF
:0F05CF00033701010103340101010331FFFFFF75
:10052500E53125E0FFA290E4334FF531E53225E0D2
:10053500FFA291E4334FF532E53325E0FFA292E4C3
:10054500334FF533E4FF74312FF8E6FEB4FF08743A
:10055500372FF876018009EE700674372FF8E4F628
:040565000FBF03E2DF
:01056900226F
:1006C7007FFFE4FE74342EF8E6FD74372EF8E6FC5F
:1006D7006D600BED6002AF0674342EF8A6040EBEF3
:0206E70003E22C
:0106E90022EE
:04075800D2A27F02A8
:10075C00E4FEEEC39F5009E4FD0DBD7DFC0E80F25E
:01076C00226A
:0E076D00C2A0D2A1120758E5805480FFC2A29C
:01077B00225B
:10074200AB07AA0612076DEF70FAC2A0C2A18B8096
:06075200120758C2A222AA
:10069F00AE2FAF307C001203087C007D0A120308D6
:0406AF00ED2430FF07
:1006B300AC0712076DEF70FAD2A0C2A18C801207AB
:0406C30058C2A22255
:1006EA007F387E001207427F0C7E001207427F0687
:1006FA007E001207427F017E001207427F0A02072C
:01070A005C92
:10072900E4FEEF7006ED2480FE8007BF0104ED248E
:09073900C0FEAF067E000207427B
:060675008B1A8A1B891C90
:10067B00E4F51D120729AB1AAA1BA91CAF1DEF33FA
:10068B0095E08F82F5831202DBFF60071206B3053C
:03069B001D80E3DC
:01069E002239
:04056A008B828A8373
:10056E0085832F858230120729E582458370047FAB
:10057E00308024AE2FAF307C037DE81206A57D645B
:10058E0012069F7D0A12069FAE2FAF307C007D0AA9
:0A059E00120308ED2430FF1206B32B
:0105A8002230
:10001E000202C6E86480F8E933E83360110460F048
:10002E00ED33EC337009E8FCE9FDEAFEEBFF220448
:10003E0060DED3EB9FEA9EE99DE8C2E78CF0C2F743
:10004E0095F0400CE8CCF8E9CDF9EACEFAEBCFFB0F
:10005E0012029185D0F05804700320D5B3E80470D5
:10006E00075002B2D50202D092D5EC0460F7E4CC70
:10007E00C0E0C398F8603B94186008400DD0E0FBD8
:10008E000202A8E4FBFAC9FC8028E830E406E4C9C1
:10009E00FBE4CAFCE830E305E4C9CACBFCE854072C
:1000AE006010F8C3E913F9EA13FAEB13FBEC13FC37
:1000BE00D8F130F52FC3E49CFCEF9BFFEE9AFEEDDA
:1000CE0099FDD0E0FBEF4E4D4C701222DB03020285
:1000DE00CDEC2CFCEF33FFEE33FEED33FDED30E7D0
:1000EE00EB0202A8EF2BFFEE3AFEED39FDD0E0FB5E
:1000FE0050130BBB00030202D0ED13FDEE13FEEF07
:08010E0013FFEC13FC0202A830
:10011600EC4D6011E8497017ED33EC3304600DE4E3
:10012600FCFFFEFD22E933E8330470F80202C61232
:10013600029158046009E4CC248150062850090233
:1001460002D02840030202CDC0E0EB4A7044B980D9
:1001560006D0E0FB0202BCEF4E701CBD8008EBFF30
:10016600EAFEE9FD80EBE98DF0A4FEE5F00201FF71
:10017600E9CDF9EAFEEBFFEF89F0A4FCE5F0CE89C4
:10018600F0A42EFFE435F0CD89F0A42DFEE435F081
:100196008067EF4E7005BD80D780C3EF8BF0A4ACAF
:1001A600F0EE8BF0A42CFCE435F0F8EF8AF0A42CEA
:1001B600E5F038FCE433CB8DF0A42CFCE5F03BF8FD
:1001C600EE8AF0A42CFCE5F038F8E433CF89F0A4ED
:1001D6002CFCE5F038CF3400CE89F0A42FFFE5F0F3
:1001E6003EFEE433C98DF0A42EFEE5F039CD8AF04B
:1001F600A42FFFE5F03EFEE43DFD33D0E0FB5007C3
:100206000BBB000F0202D0EC2CFCEF33FFEE33FEEB
:06021600ED33FD0202A819
:10021C0075F020800E75F010800575F0087D007E5D
:10022C00007F003392D530D50312035DEC334010C0
:10023C00EF33FFEE33FEED33FDEC33FCD5F0ED2266
:0E024C00E5F0247EA2D513CC92E7CDCEFF22A2
:10025A00EDD2E7CD33EC3392D524814006E4FFFE9C
:10026A00FDFC22FCE4CFCECDCC24E0501174FF80FB
:10027A00EDC3CC13CCCD13CDCE13CECF13CF047098
:07028A00F030D5DE02035D38
:10029100E9D2E7C933E833F892D5EDD2E7CD33ECB3
:0702A10033FC5002B2D5222C
:1002A800EC30E7100FBF000C0EBE00080DBD0004B7
:1002B8000BEB6014A2D5EB13FCED92E7FD2274FF63
:1002C800FCFDFEFF22E480F8A2D574FF13FC7D80BC
:0302D800E480EFD0
:03000000020431C6
:0C043100787FE4F6D8FD7581390204786C
:1002DB00BB010CE58229F582E5833AF583E02250D8
:1002EB0006E92582F8E622BBFE06E92582F8E22222
:0D02FB00E58229F582E5833AF583E493223C
:10030800BC000BBE0029EF8DF084FFADF022E4CCD9
:10031800F875F008EF2FFFEE33FEEC33FCEE9DECA2
:10032800984005FCEE9DFE0FD5F0E9E4CEFD22EDE8
:10033800F8F5F0EE8420D21CFEADF075F008EF2F32
:10034800FFED33FD4007985006D5F0F222C398FD23
:050358000FD5F0EA22C0
:0E035D00C3E49FFFE49EFEE49DFDE49CFC22B1
:10043D000205DFE493A3F8E493A34003F68001F2F1
:10044D0008DFF48029E493A3F85407240CC8C333C0
:10045D00C4540F4420C8834004F456800146F6DF8F
:10046D00E4800B01020408102040809005A9E47E71
:10047D00019360BCA3FF543F30E509541FFEE49384
:10048D00A360010ECF54C025E060A840B8E493A34B
:10049D00FAE493A3F8E493A3C8C582C8CAC583CA76
:1004AD00F0A3C8C582C8CAC583CADFE9DEE780BE2E
:0105DE00001C
:00000001FF
