:100E6D00C100C10101780101770001790002730011
:100E7D000002750000045E00000000046200000026
:100E8D0000046600000000046A00000000046E000B
:060E9D00000000017200DC
:100F6C008F148E138D128C11E4FFFEFD7C3FAB149D
:0D0F7C00AA13A912A8111200251203842245
:0808C8008F0D8E0C8D0B8C0AC4
:1008D000E4F50EF50F8579101203848E758F76ACD2
:1008E00077E41203508F188E178D168C157F007EBB
:1008F000007D207C41120B59C004C005C006C00712
:10090000AC75AD76E412034BA804A905AA06AB07A3
:10091000AF0DAE0CAD0BAC0A120021D003D002D04B
:1009200001D000120116120F6C8E738F747D0F7F31
:1009300001120F89E4FFFEFDFCAB0DAA0CA90BA868
:100940000A1202BC700C7D0F7F01120F897F3002EA
:1009500009FF300162E57445736030C3740F950F71
:10096000FD7F01120F89AE73AF747C007D0A120403
:100970007EED2430FF120FB7AE73AF747C007D0A9A
:1009800012047E8E738F74050F80CAE5106016C343
:10099000740F950FFD7F01120F897F30120FB7057D
:1009A0000F151080E6C3740F950FFD7F01120F899C
:1009B0007F2E120FB7050FE57645756030C3740FB3
:1009C000950FFD7F01120F89AE75AF767C007D0A11
:1009D00012047EED2430FF120FB7AE75AF767C00A7
:1009E0007D0A12047E8E758F76050F80CAE578B475
:1009F000FF12C3740F950FFD7F01120F897F2D1217
:100A00000FB7050FE4FD7F01120F89E4F50EC374E3
:100A100010950FFFE50EC39F50097F20120FB705F9
:030A20000E80EB5A
:010A230022B0
:020501008F0960
:10050300E509C39400500302059CE509D39409400F
:100513000302059C30014CE509700205790577ABB0
:1005230061AA60A95FA85EC000C001C002C003AC9D
:1005330077E41203508F188E178D168C157FCD7E9E
:10054300CC7DCC7C3D120B59C004C005C006C0074E
:10055300AC09E4120350D003D002D001D000120141
:10056300168020E4FFFE7D207C41AB61AA60A95F79
:10057300A85E120116C004C005C006C007AC09E49A
:10058300120350D003D002D001D0001200258F6196
:100593008E608D5F8C5E0206E5E509B40A08D20120
:1005A300E4F5770206FEE509B40B24AF65AE64AD4E
:1005B30063AC62A804A905AA06AB071201168F65EE
:1005C3008E648D638C62757801E4F5790208C4E565
:1005D30009C3940C4073E509D3940F506CE5727012
:1005E3002CFFFEFDFCAB61AA60A95FA85E1202BCF2
:1005F300701BFFFEFDFCAB69AA68A967A86612021F
:10060300BC700AE509B40D057578FF80067578019D
:1006130085097230000C8569658568648567638523
:10062300666285657185647085636F85626EC200DD
:10063300C201E4F561F560F55FF55EF573F574F5F8
:1006430075F576757801F57922E509641060030282
:100653000709300168AE73AF74FC7D0A12047E8E05
:10066300738F741577C3E49577FDE49400FCE4126B
:10067300034B8F188E178D168C157F007E007D20FF
:100683007C41120B59C004C005C006C007AC73AD52
:1006930074E412034BD003D002D001D00012011630
:1006A300C004C005C006C007AC75AD76E412034BA9
:1006B300D003D002D001D000120025801DE4FBFA44
:1006C30079207841AF61AE60AD5FAC5E12021F125C
:1006D3000384AD07AC06E412034B8F618E608D5F1C
:1006E3008C5EAC78EC120350AB61AA60A95FA85E84
:1006F3001201168F658E648D638C62AF61AE60AD3F
:100703005FAC5E0208C4E509B41128E578F404F58A
:1007130078FC120350AB61AA60A95FA85E120116B0
:100723008F658E648D638C62AF61AE60AD5FAC5ECE
:100733000208C4E50964126003020885D200F57952
:10074300E57224F3601F1460311460432403705A6C
:10075300AF65AE64AD63AC62AB71AA70A96FA86EEE
:10076300120025803DAB65AA64A963A862AF71AE90
:1007730070AD6FAC6E1200218028AF65AE64AD63BF
:10078300AC62AB71AA70A96FA86E1201168013AB8D
:1007930065AA64A963A862AF71AE70AD6FAC6E1247
:1007A300021F8F698E688D678C66E4FFFEFDFCABCC
:1007B30069AA68A967A8661202BC50057578FF800C
:1007C30003757801E4FFFEFDFCAB69AA68A967A87D
:1007D300661202BCAF69AE68AD67AC665005120322
:1007E3003580008F6D8E6C8D6B8C6A120384AD0720
:1007F300AC06EC12034BAB6DAA6CA96BA86A120290
:10080300BC605BD201E4F577AF6DAE6CAD6BAC6AE7
:10081300120384AD07AC06EC12034BA804A905AA86
:1008230006AB07AF6DAE6CAD6BAC6A120021120361
:10083300848E738F74D3E5749400E573940040231E
:10084300AE73AF747C007D0A12046C8E738F74C315
:10085300E5749FF574E5739EF573057780D7C20140
:10086300E4F577AF6DAE6CAD6BAC6A1208C8C2012C
:10087300E4F561F560F55FF55EF565F564F563F53F
:100883006222E5096413703CF573F574F575F5762A
:10089300F561F560F55FF55EF565F564F563F562A1
:1008A300F569F568F567F566F56DF56CF56BF56A51
:1008B300F572C200C201F577F579757801FFFEFD87
:0408C300FC1208C853
:0108C700220E
:100FCB007508FF120FDE120F4B120EE98F08120578
:030FDB000180F69C
:040FA200D2A27F0256
:100FA600E4FEEEC39F5009E4FD0DBD7DFC0E80F20C
:010FB6002218
:0E0FEE00C2A0D2A1120FA2E5805480FFC2A2C1
:010FFC0022D2
:10000300AB07AA06120FEEEF70FAC2A0C2A18B8053
:06001300120FA2C2A2229E
:100FB700AC07120FEEEF70FAD2A0C2A18C80120F0D
:040FC700A2C2A222FE
:100F4B007F387E001200037F0C7E001200037F06A9
:100F5B007E001200037F017E001200037F0A020F46
:010F6B00A6DF
:100F8900E4FEEF7006ED2480FE8007BF0104ED2426
:090F9900C0FEAF067E0002000359
:100EA300144A0101010101010101010101010101D3
:100EB30001010101010114360101010101010101D7
:100EC3000101010101010101010101011421FFFFE0
:100ED300FFFFFFFFFFFFFFFFFFFFFFFFFFFFFFFF1F
:050EE300FFFF013500D6
:100C7000E53514601314601814602114602A2404EC
:100C80007030C2B4D2B58004D2B4C2B5D2B6800638
:100C9000D2B4D2B5C2B6D2B7D2908016D2B4D2B541
:100CA000D2B6C2B7D290800AD2B4D2B5D2B6D2B739
:100CB000C29074212535F8E625E0FFA2B0E4334F59
:100CC000FF74212535F8A60774262535F8E625E0BA
:100CD000FFA2B1E4334FFF74262535F8A607742B25
:100CE0002535F8E625E0FFA2B2E4334FFF742B254B
:100CF00035F8A60774302535F8E625E0FFA2B3E401
:100D0000334FFF74302535F8A607E4FFEF75F00583
:100D1000A424212535F8E6FEB4FF0EEF75F005A4F6
:100D2000244A2535F87601800FEE700CEF75F0053A
:100D3000A4244A2535F8E4F60FBF04D00535E5357F
:060D4000B40503E4F535E3
:010D4600228A
:100EE9007FFFE4FDE4FEEE75F005A424362DF8E657
:100EF900FCEE75F005A4244A2DF8E6FB6C6015ECB0
:100F09006007ED25E025E02EFFEE75F005A42436F7
:0C0F19002DF8A6030EBE04CE0DBD05C8C9
:010F250022A9
:100FDE00D28E758910758DF8758B30D2AFD2AB224B
:03001B00020F26AB
:100F2600C0E0C0F0C0D075D000C000C006C00775D4
:100F36008DF8758B30120C70D007D006D000D0D04B
:050F4600D0F0D0E03204
:10001E000203F0E86480F8E933E83360110460F01D
:10002E00ED33EC337009E8FCE9FDEAFEEBFF220448
:10003E0060DED3EB9FEA9EE99DE8C2E78CF0C2F743
:10004E0095F0400CE8CCF8E9CDF9EACEFAEBCFFB0F
:10005E001203BB85D0F05804700320D5B3E80470AA
:10006E00075002B2D50203FA92D5EC0460F7E4CC45
:10007E00C0E0C398F8603B94186008400DD0E0FBD8
:10008E000203D2E4FBFAC9FC8028E830E406E4C996
:10009E00FBE4CAFCE830E305E4C9CACBFCE854072C
:1000AE006010F8C3E913F9EA13FAEB13FBEC13FC37
:1000BE00D8F130F52FC3E49CFCEF9BFFEE9AFEEDDA
:1000CE0099FDD0E0FBEF4E4D4C701222DB03020384
:1000DE00F7EC2CFCEF33FFEE33FEED33FDED30E7A6
:1000EE00EB0203D2EF2BFFEE3AFEED39FDD0E0FB33
:1000FE0050130BBB00030203FAED13FDEE13FEEFDC
:08010E0013FFEC13FC0203D205
:10011600EC4D6011E8497017ED33EC3304600DE4E3
:10012600FCFFFEFD22E933E8330470F80203F01207
:1001360003BB58046009E4CC248150062850090208
:1001460003FA2840030203F7C0E0EB4A7044B98083
:1001560006D0E0FB0203E6EF4E701CBD8008EBFF05
:10016600EAFEE9FD80EBE98DF0A4FEE5F00201FF71
:10017600E9CDF9EAFEEBFFEF89F0A4FCE5F0CE89C4
:10018600F0A42EFFE435F0CD89F0A42DFEE435F081
:100196008067EF4E7005BD80D780C3EF8BF0A4ACAF
:1001A600F0EE8BF0A42CFCE435F0F8EF8AF0A42CEA
:1001B600E5F038FCE433CB8DF0A42CFCE5F03BF8FD
:1001C600EE8AF0A42CFCE5F038F8E433CF89F0A4ED
:1001D6002CFCE5F038CF3400CE89F0A42FFFE5F0F3
:1001E6003EFEE433C98DF0A42EFEE5F039CD8AF04B
:1001F600A42FFFE5F03EFEE43DFD33D0E0FB5007C3
:100206000BBB000F0203FAEC2CFCEF33FFEE33FEC0
:06021600ED33FD0203D2EE
:10021C000203FAEC5D046005E8590470030203F074
:10022C001203BB580460F6EC4860F2EC7004FDFE5F
:10023C00FF22C860DB2481C85009C39860025006B5
:10024C000203F79850CAF582E9294B4A7005AB8234
:10025C000203E675F0007C1A7880C3EF9BEE9AEDF2
:10026C0099400DC3EF9BFFEE9AFEED99FDE842F02D
:10027C00DC23ACF0D0E0FFD0E0FED0E0FDAB822080
:10028C00E7101BEB60BAEC2CFCEF33FFEE33FEED0A
:10029C0033FD0203D2E803F830E705C0F075F00037
:1002AC00EF2FFFEE33FEED33FD40B830E7C280AAEE
:1002BC0074F8CC6480CCC86480C8F58204604FC3E9
:1002CC00EB9FF5F0EA9E42F0E99D42F0E89C45F088
:1002DC00603C501DE5825FFFE582D313CB5BCBF412
:1002EC002B5582FB50280ABA002409B9002008803B
:1002FC001DE5825BFBE582D313CF5FCFF4C3132FD5
:10030C005582FF50090EBE00050DBD00010CC3EB5C
:10031C009FF5F0EA9E42F0E99D42F0E89C45F060C2
:09032C0007CC4820E701B3EC22E4
:10033500ED33EC33600A047003BD8004ECB2E7FCD6
:010345002295
:1003460075F020800E75F010800575F0087D007E32
:10035600007F003392D530D5031204D3EC3340101E
:10036600EF33FFEE33FEED33FDEC33FCD5F0ED223B
:0E037600E5F0247EA2D513CC92E7CDCEFF2277
:10038400EDD2E7CD33EC3392D524814006E4FFFE71
:10039400FDFC22FCE4CFCECDCC24E0501174FF80D0
:1003A400EDC3CC13CCCD13CDCE13CECF13CF04706D
:0703B400F030D5DE0204D396
:100B59008F148E138D128C11E4FFFE7D807C3FABC8
:100B690014AA13A912A8111202BC7009AF14AE136A
:100B7900AD12AC1122AF14AE13AD12AC11120405B3
:100B8900FBAF18AE17AD16AC15120405FFBF01086F
:100B9900E4FFFE7D807C3F22EF64046022EB640465
:100BA900601DBB0127E4FFFEFDFCAB18AA17A916BF
:100BB900A8151202BC60084006E4FFFEFDFC227481
:100BC900FFF518F517F516F515020C67E4F519F593
:100BD9001AFFFEFDFCAB14AA13A912A8111202BC3C
:100BE900504BAF18AE17AD16AC151203848E198F82
:100BF9001AAC19AD1AEC12034BC8ECC8C9EDC9CA35
:100C0900EECACBEFCBAF18AE17AD16AC151200215B
:100C1900E4FBFAF9F81202BC70A5AF14AE13AD12D9
:100C2900AC111203358F148E138D128C11AF14AEC3
:100C390013AD12AC11120A58AB18AA17A916A815A8
:100C4900120116120D7F8F188E178D168C15E51A45
:100C590030E00B1203358F188E178D168C15AF18CF
:070C6900AE17AD16AC152219
:1003BB00E9D2E7C933E833F892D5EDD2E7CD33EC88
:0703CB0033FC5002B2D52201
:1003D200EC30E7100FBF000C0EBE00080DBD00048C
:1003E2000BEB6014A2D5EB13FCED92E7FD2274FF38
:1003F200FCFDFEFF22E480F8A2D574FF13FC7D8091
:03040200E480EFA4
:10040500ED33EC33601004700FED547F700574020A
:0A04150092E0227404220422E42283
:100D470033DA929E35B16011377FE5FE3921848908
:100D57003AAEC3FF3C1D955B3D6358473E75FDF0BA
:100D67003F3172183F800000C2D50203FA0203F038
:100D7700BD80FA50F30203F7ED33EC330460F17BE7
:100D87003B7AAA79B8783F120116ED33EC3392D546
:100D9700247B5011A2D570DB500BED448024045006
:100DA70004A2D580CEEFFBEEFAEDF9ECF81203843E
:100DB700EFF582F404FC120350120025C082900D57
:100DC70047740912042EED33CC33D0F092D525F0B9
:0A0DD700A2D57001C313CC13FD2256
:100A24003E9248DA3ECCCCCD3F2AAAAB400000002F
:100A34003F8000003F9837F03FB504F33FD744FCB4
:100A44003E3172173EB172173F0515913EDE5BD9F8
:100A5400D2028002C202EDD2E7F8CD33EC33047047
:100A64000BBD800592D50203FA0203F040FBD314B8
:100A740060F2F5F07C3FEE7A00C39496C8948B4004
:100A8400230AC89469C8941A401A0AC89468C89476
:100A94001F40110AC8945AC89425400805F07A00EA
:100AA400CDC2E7CDC0F08C1B8D1C8E1D8F1EEA239A
:100AB40023C0E02434F582E4340AF5831204F112ED
:100AC4000025ECC0E0EDC0E0EEC0E0EFC0E01204B1
:100AD400E1A81BA91CAA1DAB1E120021D0E0FBD06B
:100AE400E0FAD0E0F9D0E0B2E7F812021F8C1B8DD7
:100AF4001C8E1D8F1E900A24740312041FA81BA9A8
:100B04001CAA1DAB1E120116D0E0600F2440F58212
:100B1400E4340AF5831204F11200258C1B8D1C8E1B
:100B24001D8F1ED0E0C3947FFDE49400FC12034BA0
:100B34007B187A727931783F120116A81BA91CAA76
:100B44001DAB1E12002530020B7BD97A5B79DE784F
:050B54003E1201162213
:10041F00C0E0EFFBEEFAEDF9ECF8120116D0E0F5C3
:10042F00F0EFFBEEFAEDF9ECF81204E1A3A3A3A3AE
:10043F00E8C0E0E9C0E0EAC0E0EBC0E0C0F01201C4
:10044F00161204F1A3A3A3A3120025D0F0D0E0FB52
:0D045F00D0E0FAD0E0F9D0E0F8D5F0D422DA
:03000000020DE10D
:0C0DE100787FE4F6D8FD758179020E28B9
:10046C00EF8DF0A4A8F0CF8CF0A428CE8DF0A42EA4
:02047C00FE225E
:10047E00BC000BBE0029EF8DF084FFADF022E4CC62
:10048E00F875F008EF2FFFEE33FEEC33FCEE9DEC2B
:10049E00984005FCEE9DFE0FD5F0E9E4CEFD22ED71
:1004AE00F8F5F0EE8420D21CFEADF075F008EF2FBB
:1004BE00FFED33FD4007985006D5F0F222C398FDAC
:0504CE000FD5F0EA2249
:0E04D300C3E49FFFE49EFEE49DFDE49CFC223A
:1004E100E493FC740193FD740293FE740393FF2261
:1004F100E493F8740193F9740293FA740393FB2261
:100DED00020FCBE493A3F8E493A34003F68001F242
:100DFD0008DFF48029E493A3F85407240CC8C33307
:100E0D00C4540F4420C8834004F456800146F6DFD5
:100E1D00E4800B0102040810204080900E6DE47EEA
:100E2D00019360BCA3FF543F30E509541FFEE493CA
:100E3D00A360010ECF54C025E060A840B8E493A391
:100E4D00FAE493A3F8E493A3C8C582C8CAC583CABC
:100E5D00F0A3C8C582C8CAC583CADFE9DEE780BE74
:010EE8000009
:00000001FF
