:100FC7003F065B4F666D7D077F6FFFFAF7F3EFEA2A
:020FD700E7E34E
:100E6D00C100C101015901015000106C01010101C6
:100E7D00010101010101010101010101105C0101EB
:100E8D0001010101010101010101010101010851EE
:100E9D0000000000000000001023FFFFFFFFFFFF18
:100EAD00FFFFFFFFFFFFFFFFFFFF013300024E00BB
:100EBD0000025A000002340000023600000438001F
:100ECD00000000043C00000000044000000000048D
:100EDD004400000000044800000000014C00014DDA
:010EED000004
:100F8A00E4FDFCC3ED9FEC9E5015E4FBFA0BBB009D
:0F0F9A00010AEB647D4A70F50DBD00010C80E487
:010FA9002225
:100EEF0078097C007D007BFF7A0F79D17E007F0827
:100EFF0012053CAF2274092FF8E6F5A074512FF8B4
:100F0F00E6F5807F017E00120F8A0522E52270022E
:0C0F1F000521640845217004F521F5222D
:010F2B0022A3
:100C8100E53314601014601714601E24037022C22F
:100C910093D2928004D293C292D291D2908012D2F6
:100CA10093D292C291D2908008D293D292D291C221
:100CB1009074232533F8E625E0FFA297E4334FFF34
:100CC10074232533F8A60774272533F8E625E0FFBA
:100CD100A296E4334FFF74272533F8A607742B251A
:100CE10033F8E625E0FFA295E4334FFF742B25335B
:100CF100F8A607742F2533F8E625E0FFA294E43324
:100D01004FFF742F2533F8A607E4FFEF25E025E018
:100D110024232533F8E6FEB4FF0EEF25E025E02479
:100D21006C2533F87601800FEE700CEF25E025E09D
:100D3100246C2533F8E4F60FBF04D00533E533B452
:050D41000403E4F5339A
:010D4600228A
:100FD900D28E758910758DF8758B30D2AFD2AB2250
:03001B00020F6968
:100F6900C0E0C0D075D000C000C006C007758DF8BC
:100F7900758B30120C81D007D006D000D0D0D0E0CC
:010F89003235
:100F2C007FFFE4FDE4FEEE25E025E0245C2DF8E6F1
:100F3C00FCEE25E025E0246C2DF8E6FB6C6015EC4E
:100F4C006007ED25E025E02EFFEE25E025E0245C92
:0C0F5C002DF8A6030EBE04CE0DBD04C887
:010F68002266
:100FAA008F138E128D118C10E4FFFEFD7C3FAB1364
:0D0FBA00AA12A911A810120025120384220A
:080A37008F0D8E0C8D0B8C0A53
:100A3F00E4F50EF50F1203848E4E8F4FAC50EC126F
:100A4F0003508F178E168D158C147F007E007D201E
:100A5F007C41120B6AC004C005C006C007AC4EAD86
:100A6F004FE412034BA804A905AA06AB07AF0DAEBE
:100A7F000CAD0BAC0A120021D003D002D001D00074
:100A8F00120116120FAA8E5A8F5BE4FFFEFDFCAB0C
:100A9F000DAA0CA90BA80A1202BC700B900FC793DA
:100AAF00F558050F020B4F30013BE55B455A60359A
:100ABF00AE5AAF5B7C007D0A12057474C72DF582A8
:100ACF00740F3CF583E493FFC37407950F2451F81B
:100ADF00A607AE5AAF5B7C007D0A1205748E5A8F43
:100AEF005B050F80C5E54F454E6035AE4EAF4F7C71
:100AFF00007D0A12057474C72DF582740F3CF583BF
:100B0F00E493FFC37407950F2451F8A607AE4EAFB9
:100B1F004F7C007D0A1205748E4E8F4F050F80C5D6
:100B2F00E559B4FF0CC37407950F2451F8764005AF
:100B3F000F30010CC3740795502451F8E64480F62A
:100B4F00E4F50EC37408950FFFE50EC39F500B74A9
:0A0B5F0051250EF8E4F6050E80E9BA
:010B69002269
:0205F7008F096A
:1005F900E509C3940050030206E1E509D3940940D3
:10060900030206E1300118AE36AF377C007D0A12CD
:100619000562EF2509F537EC3EF53605508014AE35
:1006290034AF357C007D0A120562EF2509F535ECFA
:100639003EF534AF50EF3395E0FEC3E49FFDE49EF1
:10064900FC12034B8F178E168D158C147F007E00BC
:100659007D207C41120B6AC004C005C006C007ACEE
:1006690036AD37EC12034BD003D002D001D00012C3
:100679000116C004C005C006C007AC34AD35EC1284
:10068900034BD003D002D001D000120025C004C012
:1006990005C006C007AC59EC120350D003D002D0F4
:1006A90001D0001201168F3B8E3A8D398C38E4FF48
:1006B900FEFDFCAB3BAA3AA939A8381202BCAF3BF4
:1006C900AE3AAD39AC38500512033580008F3F8EF4
:1006D9003E8D3D8C3C0208FBE509C3940A4071E557
:1006E90009D3940C506AE54C701DE53545347017F3
:1006F900FFFEFDFCAB43AA42A941A8401202BC700F
:1007090006E509640B6013E54DC3940A4011E54DF4
:10071900D3940C500AE509B40B057559FF80067589
:10072900590185094C30000C85433B85423A854186
:1007390039854038853B4B853A4A8539498538485A
:10074900C200C201E4F534F535F536F5370208FE85
:10075900E509B40D14D201E4F550F536F537AF3F8C
:10076900AE3EAD3DAC3C0208FBE509640E600302F8
:1007790008C6D201D200E54C24F5601F146031147B
:1007890060432403705AAF4BAE4AAD49AC48AB3B0A
:10079900AA3AA939A838120025803DAB3BAA3AA943
:1007A90039A838AF4BAE4AAD49AC48120021802870
:1007B900AF3BAE3AAD39AC38AB4BAA4AA949A848C8
:1007C9001201168013AB3BAA3AA939A838AF4BAE30
:1007D9004AAD49AC4812021F8F438E428D418C406D
:1007E900E4FFFEFDFCAB43AA42A941A8401202BCAA
:1007F90050057559FF8003755901E4FFFEFDFCABF7
:1008090043AA42A941A8401202BCAF43AE42AD413E
:10081900AC40500512033580008F478E468D458CBC
:1008290044AF43AE42AD41AC40120384AD07AC06C0
:10083900EC12034BAB43AA42A941A8401202BC6087
:1008490057D201E4F550AF47AE46AD45AC4412036B
:1008590084AD07AC06EC12034BA804A905AA06ABA4
:1008690007AF47AE46AD45AC441200211203848E52
:10087900368F37D3E5379400E53664809480401D80
:10088900AE36AF377C007D0A1205628E368F37E4AB
:10089900F537F536055080DBC201E4F550AF47AEB8
:1008A90046AD45AC44120A37C201E4F534F535F5D5
:1008B90036F537F53BF53AF539F5388038E509B4B9
:1008C9000F33E4F534F535F536F537F53BF53AF5FB
:1008D90039F538F53FF53EF53DF53CF54DF543F570
:1008E90042F541F540F54CC200C201755901FFFEC0
:0808F900FDFC120A3785094DD0
:0109010022D3
:100003007508FF120FD9120EEF120F2C8F0812056D
:03001300F780F380
:10001E000203F0E86480F8E933E83360110460F01D
:10002E00ED33EC337009E8FCE9FDEAFEEBFF220448
:10003E0060DED3EB9FEA9EE99DE8C2E78CF0C2F743
:10004E0095F0400CE8CCF8E9CDF9EACEFAEBCFFB0F
:10005E001203BB85D0F05804700320D5B3E80470AA
:10006E00075002B2D50203FA92D5EC0460F7E4CC45
:10007E00C0E0C398F8603B94186008400DD0E0FBD8
:10008E000203D2E4FBFAC9FC8028E830E406E4C996
:10009E00FBE4CAFCE830E305E4C9CACBFCE854072C
:1000AE006010F8C3E913F9EA13FAEB13FBEC13FC37
:1000BE00D8F130F52FC3E49CFCEF9BFFEE9AFEEDDA
:1000CE0099FDD0E0FBEF4E4D4C701222DB03020384
:1000DE00F7EC2CFCEF33FFEE33FEED33FDED30E7A6
:1000EE00EB0203D2EF2BFFEE3AFEED39FDD0E0FB33
:1000FE0050130BBB00030203FAED13FDEE13FEEFDC
:08010E0013FFEC13FC0203D205
:10011600EC4D6011E8497017ED33EC3304600DE4E3
:10012600FCFFFEFD22E933E8330470F80203F01207
:1001360003BB58046009E4CC248150062850090208
:1001460003FA2840030203F7C0E0EB4A7044B98083
:1001560006D0E0FB0203E6EF4E701CBD8008EBFF05
:10016600EAFEE9FD80EBE98DF0A4FEE5F00201FF71
:10017600E9CDF9EAFEEBFFEF89F0A4FCE5F0CE89C4
:10018600F0A42EFFE435F0CD89F0A42DFEE435F081
:100196008067EF4E7005BD80D780C3EF8BF0A4ACAF
:1001A600F0EE8BF0A42CFCE435F0F8EF8AF0A42CEA
:1001B600E5F038FCE433CB8DF0A42CFCE5F03BF8FD
:1001C600EE8AF0A42CFCE5F038F8E433CF89F0A4ED
:1001D6002CFCE5F038CF3400CE89F0A42FFFE5F0F3
:1001E6003EFEE433C98DF0A42EFEE5F039CD8AF04B
:1001F600A42FFFE5F03EFEE43DFD33D0E0FB5007C3
:100206000BBB000F0203FAEC2CFCEF33FFEE33FEC0
:06021600ED33FD0203D2EE
:10021C000203FAEC5D046005E8590470030203F074
:10022C001203BB580460F6EC4860F2EC7004FDFE5F
:10023C00FF22C860DB2481C85009C39860025006B5
:10024C000203F79850CAF582E9294B4A7005AB8234
:10025C000203E675F0007C1A7880C3EF9BEE9AEDF2
:10026C0099400DC3EF9BFFEE9AFEED99FDE842F02D
:10027C00DC23ACF0D0E0FFD0E0FED0E0FDAB822080
:10028C00E7101BEB60BAEC2CFCEF33FFEE33FEED0A
:10029C0033FD0203D2E803F830E705C0F075F00037
:1002AC00EF2FFFEE33FEED33FD40B830E7C280AAEE
:1002BC0074F8CC6480CCC86480C8F58204604FC3E9
:1002CC00EB9FF5F0EA9E42F0E99D42F0E89C45F088
:1002DC00603C501DE5825FFFE582D313CB5BCBF412
:1002EC002B5582FB50280ABA002409B9002008803B
:1002FC001DE5825BFBE582D313CF5FCFF4C3132FD5
:10030C005582FF50090EBE00050DBD00010CC3EB5C
:10031C009FF5F0EA9E42F0E99D42F0E89C45F060C2
:09032C0007CC4820E701B3EC22E4
:10033500ED33EC33600A047003BD8004ECB2E7FCD6
:010345002295
:1003460075F020800E75F010800575F0087D007E32
:10035600007F003392D530D5031205C9EC33401027
:10036600EF33FFEE33FEED33FDEC33FCD5F0ED223B
:0E037600E5F0247EA2D513CC92E7CDCEFF2277
:10038400EDD2E7CD33EC3392D524814006E4FFFE71
:10039400FDFC22FCE4CFCECDCC24E0501174FF80D0
:1003A400EDC3CC13CCCD13CDCE13CECF13CF04706D
:0703B400F030D5DE0205C99F
:100B6A008F138E128D118C10E4FFFE7D807C3FABBB
:100B7A0013AA12A911A8101202BC7009AF13AE125F
:100B8A00AD11AC1022AF13AE12AD11AC10120405A8
:100B9A00FBAF17AE16AD15AC14120405FFBF010862
:100BAA00E4FFFE7D807C3F22EF64046022EB640454
:100BBA00601DBB0127E4FFFEFDFCAB17AA16A915B1
:100BCA00A8141202BC60084006E4FFFEFDFC227471
:100BDA00FFF517F516F515F514020C78E4F518F576
:100BEA0019FFFEFDFCAB13AA12A911A8101202BC30
:100BFA00504BAF17AE16AD15AC141203848E188F76
:100C0A0019AC18AD19EC12034BC8ECC8C9EDC9CA26
:100C1A00EECACBEFCBAF17AE16AD15AC141200214E
:100C2A00E4FBFAF9F81202BC70A5AF13AE12AD11CB
:100C3A00AC101203358F138E128D118C10AF13AEB8
:100C4A0012AD11AC10120936AB17AA16A915A814C1
:100C5A00120116120D7F8F178E168D158C14E51939
:100C6A0030E00B1203358F178E168D158C14AF17C3
:070C7A00AE16AD15AC14220B
:1003BB00E9D2E7C933E833F892D5EDD2E7CD33EC88
:0703CB0033FC5002B2D52201
:1003D200EC30E7100FBF000C0EBE00080DBD00048C
:1003E2000BEB6014A2D5EB13FCED92E7FD2274FF38
:1003F200FCFDFEFF22E480F8A2D574FF13FC7D8091
:03040200E480EFA4
:10040500ED33EC33601004700FED547F700574020A
:0A04150092E0227404220422E42283
:100D470033DA929E35B16011377FE5FE3921848908
:100D57003AAEC3FF3C1D955B3D6358473E75FDF0BA
:100D67003F3172183F800000C2D50203FA0203F038
:100D7700BD80FA50F30203F7ED33EC330460F17BE7
:100D87003B7AAA79B8783F120116ED33EC3392D546
:100D9700247B5011A2D570DB500BED448024045006
:100DA70004A2D580CEEFFBEEFAEDF9ECF81203843E
:100DB700EFF582F404FC120350120025C082900D57
:100DC70047740912042EED33CC33D0F092D525F0B9
:0A0DD700A2D57001C313CC13FD2256
:100902003E9248DA3ECCCCCD3F2AAAAB4000000052
:100912003F8000003F9837F03FB504F33FD744FCD7
:100922003E3172173EB172173F0515913EDE5BD91B
:10093200D2028002C202EDD2E7F8CD33EC3304706A
:100942000BBD800592D50203FA0203F040FBD314DB
:1009520060F2F5F07C3FEE7A00C39496C8948B4027
:10096200230AC89469C8941A401A0AC89468C89499
:100972001F40110AC8945AC89425400805F07A000D
:10098200CDC2E7CDC0F08C1A8D1B8E1C8F1DEA23C1
:1009920023C0E02412F582E43409F5831205E7123C
:1009A2000025ECC0E0EDC0E0EEC0E0EFC0E01205D3
:1009B200D7A81AA91BAA1CAB1D120021D0E0FBD09C
:1009C200E0FAD0E0F9D0E0B2E7F812021F8C1A8DFB
:1009D2001B8E1C8F1D900902740312041FA81AA9F2
:1009E2001BAA1CAB1D120116D0E0600F241EF5825B
:1009F200E43409F5831205E71200258C1A8D1B8E4B
:100A02001C8F1DD0E0C3947FFDE49400FC12034BC5
:100A12007B187A727931783F120116A81AA91BAA9B
:100A22001CAB1D12002530020B7BD97A5B79DE7874
:050A32003E1201162236
:10041F00C0E0EFFBEEFAEDF9ECF8120116D0E0F5C3
:10042F00F0EFFBEEFAEDF9ECF81205D7A3A3A3A3B7
:10043F00E8C0E0E9C0E0EAC0E0EBC0E0C0F01201C4
:10044F00161205E7A3A3A3A3120025D0F0D0E0FB5B
:0D045F00D0E0FAD0E0F9D0E0F8D5F0D422DA
:03000000020DE10D
:0C0DE100787FE4F6D8FD75817B020E28B7
:10046C00E709F608DFFA8046E709F208DFFA803E72
:10047C0088828C83E709F0A3DFFA8032E309F6085F
:10048C00DFFA8078E309F208DFFA807088828C83C7
:10049C00E309F0A3DFFA806489828A83E0A3F6087B
:1004AC00DFFA805889828A83E0A3F208DFFA804C55
:1004BC0080D280FA80C680D4806980F2803380102C
:1004CC0080A680EA809A80A880DA80E280CA803395
:1004DC0089828A83ECFAE493A3C8C582C8CCC5830D
:1004EC00CCF0A3C8C582C8CCC583CCDFE9DEE780DD
:1004FC000D89828A83E493A3F608DFF9ECFAA9F05C
:10050C00EDFB2289828A83ECFAE0A3C8C582C8CCB1
:10051C00C583CCF0A3C8C582C8CCC583CCDFEADECA
:10052C00E880DB89828A83E493A3F208DFF980CC2C
:10053C0088F0EF60010E4E60C388F0ED2402B40425
:10054C000050B9F582EB2402B4040050AF232345CC
:06055C0082239004BC7331
:10056200EF8DF0A4A8F0CF8CF0A428CE8DF0A42EAD
:02057200FE2267
:10057400BC000BBE0029EF8DF084FFADF022E4CC6B
:10058400F875F008EF2FFFEE33FEEC33FCEE9DEC34
:10059400984005FCEE9DFE0FD5F0E9E4CEFD22ED7A
:1005A400F8F5F0EE8420D21CFEADF075F008EF2FC4
:1005B400FFED33FD4007985006D5F0F222C398FDB5
:0505C4000FD5F0EA2252
:0E05C900C3E49FFFE49EFEE49DFDE49CFC2243
:1005D700E493FC740193FD740293FE740393FF226A
:1005E700E493F8740193F9740293FA740393FB226A
:100DED00020003E493A3F8E493A34003F68001F219
:100DFD0008DFF48029E493A3F85407240CC8C33307
:100E0D00C4540F4420C8834004F456800146F6DFD5
:100E1D00E4800B0102040810204080900E6DE47EEA
:100E2D00019360BCA3FF543F30E509541FFEE493CA
:100E3D00A360010ECF54C025E060A840B8E493A391
:100E4D00FAE493A3F8E493A3C8C582C8CAC583CABC
:100E5D00F0A3C8C582C8CAC583CADFE9DEE780BE74
:010EEE000003
:00000001FF
