:0B0EDD003F065B4F666D7D077F6F00D6
:100D8B00C100C101015301014A00084B00000000E2
:100D9B000000003F14680101010101010101010183
:100DAB0001010101010101010101145401010101C2
:100DBB000101010101010101010101010101010118
:100DCB0002460000024800000121001422FFFFFF31
:100DDB00FFFFFFFFFFFFFFFFFFFFFFFFFFFFFFFF18
:100DEB00FF013600043700000000043B0000000048
:0F0DFB00023F00000241000002430000014500DA
:100EAA00E4FDFCEFFBC3ED9BEC94005015E4FBFA68
:100EBA000BBB00010AEB647D4A70F50DBD00010C05
:020ECA0080E1C5
:010ECC002203
:100E0B00C374089521FF74FEA807088002C313D88A
:100E1B00FCFFAE2174FEA806088002C333D8FC4F3A
:100E2B00F5A0744B2521F8E6F5807F01120EAAE49C
:0C0E3B00F5800521E521B40803E4F52151
:010E47002288
:100B8E00E53614601314601814602114602A2404CE
:100B9E007030C2B4D2B58004D2B4C2B5D2B680061B
:100BAE00D2B4D2B5C2B6D2B7D2908016D2B4D2B524
:100BBE00D2B6C2B7D290800AD2B4D2B5D2B6D2B71C
:100BCE00C29074222536F8E625E0FFA2B0E4334F3A
:100BDE00FF74222536F8A60774272536F8E625E099
:100BEE00FFA2B1E4334FFF74272536F8A607742C05
:100BFE002536F8E625E0FFA2B2E4334FFF742C252C
:100C0E0036F8A60774312536F8E625E0FFA2B3E4E0
:100C1E00334FFF74312536F8A607E4FFEF75F00564
:100C2E00A424222536F8E6FEB4FF0EEF75F005A4D7
:100C3E0024682536F87601800FEE700CEF75F005FE
:100C4E00A424682536F8E4F60FBF04D00536E53641
:060C5E00B40503E4F536C5
:010C6400226D
:100E48007FFFE4FDE4FEEE75F005A424542DF8E6DA
:100E5800FCEE75F005A424682DF8E6FB6C6015EC33
:100E68006007ED25E025E02EFFEE75F005A424547B
:0C0E78002DF8A6030EBE04CE0DBD05C86B
:010E8400224B
:100ECD00D28E758910758DF8758B30D2AFD2AB225D
:03001B00020E854D
:100E8500C0E0C0F0C0D075D000C000C006C0077576
:100E95008DF8758B30120B8ED007D006D000D0D0D0
:050EA500D0F0D0E032A6
:080944008F0D8E0C8D0B8C0A47
:10094C00E4F50EF50F1203738E488F49AC4AE4128E
:10095C00033F8F178E168D158C147F007E007D2023
:10096C007C41120A77C004C005C006C007AC48AD74
:10097C0049E412033AA804A905AA06AB07AF0DAEC9
:10098C000CAD0BAC0A120021D003D002D001D00068
:10099C001201161203738E468F47E4FFFEFDFCAB6B
:1009AC000DAA0CA90BA80A1202BC700B900EDD93B9
:1009BC00F552050F020A5C30013BE54745466035B0
:1009CC00AE46AF477C007D0A12046C74DD2DF582B7
:1009DC00740E3CF583E493FFC37407950F244BF816
:1009EC00A607AE46AF477C007D0A12046C8E468F7C
:1009FC0047050F80C5E54945486035AE48AF497C91
:100A0C00007D0A12046C74DD2DF582740E3CF583A6
:100A1C00E493FFC37407950F244BF8A607AE48AFB9
:100A2C00497C007D0A12046C8E488F49050F80C5E5
:100A3C00E553B4FF0CC37407950F244BF8764005AF
:100A4C000F30010CC37407954A244BF8E64480F62A
:100A5C00E4F50EC37408950FFFE50EC39F500B749D
:0A0A6C004B250EF8E4F6050E80E9B4
:010A7600225D
:0204EF008F0973
:1004F100E509C39400500302058BE509D394094033
:100501000302058B30014D054AAB3AAA39A938A837
:1005110037C000C001C002C003C3E4954AFDE494A2
:1005210000FCE412033A8F178E168D158C147F0090
:100531007E007D207C41120A77C004C005C006C040
:1005410007AC09E412033FD003D002D001D000125E
:1005510001168020E4FFFE7D207C41AB3AAA39A937
:1005610038A837120116C004C005C006C007AC097F
:10057100E412033FD003D002D001D0001200258F36
:100581003A8E398D388C370206C0E509B40A08D293
:1005910001E4F54A0206D9E509B40B21AF3EAE3DAF
:1005A100AD3CAC3BA804A905AA06AB071201168F06
:1005B1003E8E3D8D3C8C3B75530102080BE509C312
:1005C100940C406DE509D3940F5066E5457021FF09
:1005D100FEFDFCAB3AAA39A938A8371202BC70104B
:1005E100E540453F700AE509B40D057553FF8006E6
:1005F100755301850945300010AC3FAD40EC120345
:100601003A8F3E8E3D8D3C8C3BAF3EAE3DAD3CAC1A
:100611003B1203738E438F44C200C201E4F53AF5E5
:1006210039F538F537F546F547F548F5497553017C
:1006310022E509641060030206E4300168AE46AFAA
:1006410047FC7D0A12046C8E468F47154AC3E49518
:100651004AFDE49400FCE412033A8F178E168D15BF
:100661008C147F007E007D207C41120A77C004C07B
:1006710005C006C007AC46AD47E412033AD003D02B
:1006810002D001D000120116C004C005C006C00787
:10069100AC48AD49E412033AD003D002D001D000F6
:1006A1001200258012AF3AAE39AD38AC37E4FBFA0F
:1006B1007920784112021F8F3A8E398D388C37ACF0
:1006C10053EC12033FAB3AAA39A938A837120116E5
:1006D1008F3E8E3D8D3C8C3BAF3AAE39AD38AC3759
:1006E10002080BE509B41128E553F404F553FC1293
:1006F100033FAB3AAA39A938A8371201168F3E8EAB
:100701003D8D3C8C3BAF3AAE39AD38AC3702080B6E
:10071100E509641260030207D6D200D201754A02CC
:10072100E54524F3601F14603114604324037059BC
:10073100AC43AD44EC12033AAB3EAA3DA93CA83B05
:10074100120025803DAC43AD44EC12033AAB3EAA06
:100751003DA93CA83B1200218028AC43AD44EC12DA
:10076100033AAB3EAA3DA93CA83B1201168013AC4B
:1007710043AD44EC12033AAB3EAA3DA93CA83B125F
:10078100021F1203738E3F8F40C3E53F6480948044
:1007910050057553FF8003755301C3E53F64809491
:1007A10080500BC3E49540FFE4953FFE8004AE3FCB
:1007B100AF408E418F42AC41AD42E412033A12097F
:1007C10044C201E4F53AF539F538F537F53EF53D22
:1007D100F53CF53B22E509B41333E4F546F547F55D
:1007E10048F549F53AF539F538F537F53EF53DF572
:1007F1003CF53BF53FF540F541F542F545C200C2F8
:0D08010001F54A755301FFFEFDFC1209448C
:01080E0022C7
:100003007508FF120ECD120E0B120E488F08120444
:03001300EF80F388
:10001E000203DFE86480F8E933E83360110460F02E
:10002E00ED33EC337009E8FCE9FDEAFEEBFF220448
:10003E0060DED3EB9FEA9EE99DE8C2E78CF0C2F743
:10004E0095F0400CE8CCF8E9CDF9EACEFAEBCFFB0F
:10005E001203AA85D0F05804700320D5B3E80470BB
:10006E00075002B2D50203E992D5EC0460F7E4CC56
:10007E00C0E0C398F8603B94186008400DD0E0FBD8
:10008E000203C1E4FBFAC9FC8028E830E406E4C9A7
:10009E00FBE4CAFCE830E305E4C9CACBFCE854072C
:1000AE006010F8C3E913F9EA13FAEB13FBEC13FC37
:1000BE00D8F130F52FC3E49CFCEF9BFFEE9AFEEDDA
:1000CE0099FDD0E0FBEF4E4D4C701222DB03020384
:1000DE00E6EC2CFCEF33FFEE33FEED33FDED30E7B7
:1000EE00EB0203C1EF2BFFEE3AFEED39FDD0E0FB44
:1000FE0050130BBB00030203E9ED13FDEE13FEEFED
:08010E0013FFEC13FC0203C116
:10011600EC4D6011E8497017ED33EC3304600DE4E3
:10012600FCFFFEFD22E933E8330470F80203DF1218
:1001360003AA58046009E4CC248150062850090219
:1001460003E92840030203E6C0E0EB4A7044B980A5
:1001560006D0E0FB0203D5EF4E701CBD8008EBFF16
:10016600EAFEE9FD80EBE98DF0A4FEE5F00201FF71
:10017600E9CDF9EAFEEBFFEF89F0A4FCE5F0CE89C4
:10018600F0A42EFFE435F0CD89F0A42DFEE435F081
:100196008067EF4E7005BD80D780C3EF8BF0A4ACAF
:1001A600F0EE8BF0A42CFCE435F0F8EF8AF0A42CEA
:1001B600E5F038FCE433CB8DF0A42CFCE5F03BF8FD
:1001C600EE8AF0A42CFCE5F038F8E433CF89F0A4ED
:1001D6002CFCE5F038CF3400CE89F0A42FFFE5F0F3
:1001E6003EFEE433C98DF0A42EFEE5F039CD8AF04B
:1001F600A42FFFE5F03EFEE43DFD33D0E0FB5007C3
:100206000BBB000F0203E9EC2CFCEF33FFEE33FED1
:06021600ED33FD0203C1FF
:10021C000203E9EC5D046005E8590470030203DF96
:10022C001203AA580460F6EC4860F2EC7004FDFE70
:10023C00FF22C860DB2481C85009C39860025006B5
:10024C000203E69850CAF582E9294B4A7005AB8245
:10025C000203D575F0007C1A7880C3EF9BEE9AED03
:10026C0099400DC3EF9BFFEE9AFEED99FDE842F02D
:10027C00DC23ACF0D0E0FFD0E0FED0E0FDAB822080
:10028C00E7101BEB60BAEC2CFCEF33FFEE33FEED0A
:10029C0033FD0203C1E803F830E705C0F075F00048
:1002AC00EF2FFFEE33FEED33FD40B830E7C280AAEE
:1002BC0074F8CC6480CCC86480C8F58204604FC3E9
:1002CC00EB9FF5F0EA9E42F0E99D42F0E89C45F088
:1002DC00603C501DE5825FFFE582D313CB5BCBF412
:1002EC002B5582FB50280ABA002409B9002008803B
:1002FC001DE5825BFBE582D313CF5FCFF4C3132FD5
:10030C005582FF50090EBE00050DBD00010CC3EB5C
:10031C009FF5F0EA9E42F0E99D42F0E89C45F060C2
:09032C0007CC4820E701B3EC22E4
:1003350075F020800E75F010800575F0087D007E43
:10034500007F003392D530D5031204C1EC33401041
:10035500EF33FFEE33FEED33FDEC33FCD5F0ED224C
:0E036500E5F0247EA2D513CC92E7CDCEFF2288
:10037300EDD2E7CD33EC3392D524814006E4FFFE82
:10038300FDFC22FCE4CFCECDCC24E0501174FF80E1
:10039300EDC3CC13CCCD13CDCE13CECF13CF04707E
:0703A300F030D5DE0204C1B9
:100A77008F138E128D118C10E4FFFE7D807C3FABAF
:100A870013AA12A911A8101202BC7009AF13AE1253
:100A9700AD11AC1022AF13AE12AD11AC101203F4AE
:100AA700FBAF17AE16AD15AC141203F4FFBF010868
:100AB700E4FFFE7D807C3F22EF64046022EB640448
:100AC700601DBB0127E4FFFEFDFCAB17AA16A915A5
:100AD700A8141202BC60084006E4FFFEFDFC227465
:100AE700FFF517F516F515F514020B85E4F518F55E
:100AF70019FFFEFDFCAB13AA12A911A8101202BC24
:100B0700504BAF17AE16AD15AC141203738E188F7A
:100B170019AC18AD19EC12033AC8ECC8C9EDC9CA2B
:100B2700EECACBEFCBAF17AE16AD15AC1412002142
:100B3700E4FBFAF9F81202BC70A5AF13AE12AD11BF
:100B4700AC1012040E8F138E128D118C10AF13AED2
:100B570012AD11AC10120843AB17AA16A915A814A9
:100B6700120116120C9D8F178E168D158C14E51910
:100B770030E00B12040E8F178E168D158C14AF17DD
:070B8700AE16AD15AC1422FF
:1003AA00E9D2E7C933E833F892D5EDD2E7CD33EC99
:0703BA0033FC5002B2D52212
:1003C100EC30E7100FBF000C0EBE00080DBD00049D
:1003D1000BEB6014A2D5EB13FCED92E7FD2274FF49
:1003E100FCFDFEFF22E480F8A2D574FF13FC7D80A2
:0303F100E480EFB6
:1003F400ED33EC33601004700FED547F700574021C
:0A04040092E0227404220422E42294
:10040E00ED33EC33600A047003BD8004ECB2E7FCFC
:01041E0022BB
:100C650033DA929E35B16011377FE5FE39218489EB
:100C75003AAEC3FF3C1D955B3D6358473E75FDF09D
:100C85003F3172183F800000C2D50203E90203DF3D
:100C9500BD80FA50F30203E6ED33EC330460F17BDB
:100CA5003B7AAA79B8783F120116ED33EC3392D529
:100CB500247B5011A2D570DB500BED4480240450E9
:100CC50004A2D580CEEFFBEEFAEDF9ECF812037332
:100CD500EFF582F404FC12033F120025C082900C4C
:100CE50065740912042EED33CC33D0F092D525F07E
:0A0CF500A2D57001C313CC13FD2239
:10080F003E9248DA3ECCCCCD3F2AAAAB4000000046
:10081F003F8000003F9837F03FB504F33FD744FCCB
:10082F003E3172173EB172173F0515913EDE5BD90F
:10083F00D2028002C202EDD2E7F8CD33EC3304705E
:10084F000BBD800592D50203E90203DF40FBD314F1
:10085F0060F2F5F07C3FEE7A00C39496C8948B401B
:10086F00230AC89469C8941A401A0AC89468C8948D
:10087F001F40110AC8945AC89425400805F07A0001
:10088F00CDC2E7CDC0F08C1A8D1B8E1C8F1DEA23B5
:10089F0023C0E0241FF582E43408F5831204DF122D
:1008AF000025ECC0E0EDC0E0EEC0E0EFC0E01204C8
:1008BF00CFA81AA91BAA1CAB1D120021D0E0FBD098
:1008CF00E0FAD0E0F9D0E0B2E7F812021F8C1A8DEF
:1008DF001B8E1C8F1D90080F740312041FA81AA9DA
:1008EF001BAA1CAB1D120116D0E0600F242BF58242
:1008FF00E43408F5831204DF1200258C1A8D1B8E49
:10090F001C8F1DD0E0C3947FFDE49400FC12033ACA
:10091F007B187A727931783F120116A81AA91BAA8F
:10092F001CAB1D12002530020B7BD97A5B79DE7868
:05093F003E120116222A
:10041F00C0E0EFFBEEFAEDF9ECF8120116D0E0F5C3
:10042F00F0EFFBEEFAEDF9ECF81204CFA3A3A3A3C0
:10043F00E8C0E0E9C0E0EAC0E0EBC0E0C0F01201C4
:10044F00161204DFA3A3A3A3120025D0F0D0E0FB64
:0D045F00D0E0FAD0E0F9D0E0F8D5F0D422DA
:03000000020CFFF0
:0C0CFF00787FE4F6D8FD75817B020D467D
:10046C00BC000BBE0029EF8DF084FFADF022E4CC74
:10047C00F875F008EF2FFFEE33FEEC33FCEE9DEC3D
:10048C00984005FCEE9DFE0FD5F0E9E4CEFD22ED83
:10049C00F8F5F0EE8420D21CFEADF075F008EF2FCD
:1004AC00FFED33FD4007985006D5F0F222C398FDBE
:0504BC000FD5F0EA225B
:0E04C100C3E49FFFE49EFEE49DFDE49CFC224C
:1004CF00E493FC740193FD740293FE740393FF2273
:1004DF00E493F8740193F9740293FA740393FB2273
:100D0B00020003E493A3F8E493A34003F68001F2FB
:100D1B0008DFF48029E493A3F85407240CC8C333E9
:100D2B00C4540F4420C8834004F456800146F6DFB8
:100D3B00E4800B0102040810204080900D8BE47EB0
:100D4B00019360BCA3FF543F30E509541FFEE493AD
:100D5B00A360010ECF54C025E060A840B8E493A374
:100D6B00FAE493A3F8E493A3C8C582C8CAC583CA9F
:100D7B00F0A3C8C582C8CAC583CADFE9DEE780BE57
:010E0A0000E7
:00000001FF
