:0B0E45003F065B4F666D7D077F6F006E
:100CD500C100C101015801014F000850000000008A
:100CE5000000003F106B010101010101010101013B
:100CF500010101010101105B010101010101010176
:100D050001010101010101010121001022FFFFFF85
:100D1500FFFFFFFFFFFFFFFFFFFFFFFFFF013200A8
:100D2500024D0000025900000233000002350000A8
:100D3500043700000000043B00000000043F0000F1
:100D45000000044300000000044700000000014BC0
:040D550000014C004D
:100DD400E4FDFCEFFBC3ED9BEC94005015E4FBFA3F
:100DE4000BBB00010AEB647D4A70F50DBD00010CDC
:020DF40080E19C
:010DF60022DA
:100D5A00C374089521FF74FEA807088002C313D83C
:100D6A00FCFFAE2174FEA806088002C333D8FC4FEC
:100D7A00F5A074502521F8E6F5807F01120DD4E420
:0C0D8A00F5800521E521B40803E4F52103
:010D9600223A
:100AE900E53214601014601714601E24037022C2CA
:100AF900B4D2B58004D2B4C2B5D2B6D2B78012D2BC
:100B0900B4D2B5C2B6D2B78008D2B4D2B5D2B6C2C1
:100B1900B774222532F8E625E0FFA2B0E4334FFF8F
:100B290074222532F8A60774262532F8E625E0FF57
:100B3900A2B1E4334FFF74262532F8A607742A259B
:100B490032F8E625E0FFA2B2E4334FFF742A2532DA
:100B5900F8A607742E2532F8E625E0FFA2B3E433A0
:100B69004FFF742E2532F8A607E4FFEF25E025E0B4
:100B790024222532F8E6FEB4FF0EEF25E025E02415
:100B89006B2532F87601800FEE700CEF25E025E039
:100B9900246B2532F8E4F60FBF04D00532E532B4F0
:050BA9000403E4F53235
:010BAE002224
:100D97007FFFE4FDE4FEEE25E025E0245B2DF8E689
:100DA700FCEE25E025E0246B2DF8E6FB6C6015ECE6
:100DB7006007ED25E025E02EFFEE25E025E0245B2A
:0C0DC7002DF8A6030EBE04CE0DBD04C81E
:010DD30022FD
:100E3500D28E758910758DF8758B30D2AFD2AB22F5
:03001B00020DF7DC
:100DF700C0E0C0D075D000C000C006C007758DF830
:100E0700758B30120AE9D007D006D000D0D0D0E0D9
:010E170032A8
:100E18008F138E128D118C10E4FFFEFD7C3FAB13F7
:0D0E2800AA12A911A810120025120384229D
:08089F008F0D8E0C8D0B8C0AED
:1008A700E4F50EF50F1203848E4D8F4EAC4FE41214
:1008B70003508F178E168D158C147F007E007D20B8
:1008C7007C411209D2C004C005C006C007AC4DADBB
:1008D7004EE412034BA804A905AA06AB07AF0DAE59
:1008E7000CAD0BAC0A120021D003D002D001D0000E
:1008F700120116120E188E598F5AE4FFFEFDFCAB3B
:100907000DAA0CA90BA80A1202BC700B900E4593F6
:10091700F557050F0209B730013BE55A45596035D0
:10092700AE59AF5A7C007D0A12047E74452DF582BC
:10093700740E3CF583E493FFC37407950F2450F8B6
:10094700A607AE59AF5A7C007D0A12047E8E598FD6
:100957005A050F80C5E54E454D6035AE4DAF4E7C0F
:10096700007D0A12047E74452DF582740E3CF583D2
:10097700E493FFC37407950F2450F8A607AE4DAF55
:100987004E7C007D0A12047E8E4D8F4E050F80C56A
:10099700E558B4FF0CC37407950F2450F87640054B
:1009A7000F30010CC37407954F2450F8E64480F6C6
:1009B700E4F50EC37408950FFFE50EC39F500B7443
:0A09C70050250EF8E4F6050E80E955
:0109D1002203
:020501008F0960
:10050300E509C3940050030205E7E509D3940940C4
:10051300030205E7300118AE35AF367C007D0A12C1
:10052300046CEF2509F536EC3EF535054F8014AE26
:1005330033AF347C007D0A12046CEF2509F534ECEB
:100543003EF533C3E4954FFDE49400FCE412034B02
:100553008F178E168D158C147F007E007D207C41B5
:100563001209D2C004C005C006C007AC35AD36ECD5
:1005730012034BD003D002D001D000120116C004E5
:10058300C005C006C007AC33AD34EC12034BD00337
:10059300D002D001D000120025C004C005C006C09F
:1005A30007AC58EC120350D003D002D001D0001294
:1005B30001168F3A8E398D388C37E4FFFEFDFCAB84
:1005C3003AAA39A938A8371202BCAF3AAE39AD38C6
:1005D300AC37500512033580008F3E8E3D8D3C8C29
:1005E3003B020763E509C3940A4071E509D3940C00
:1005F300506AE54B701DE53445337017FFFEFDFC73
:10060300AB42AA41A940A83F1202BC7006E50964A7
:100613000B6013E54CC3940A4011E54CD3940C5082
:100623000AE509B40B057558FF800675580185095D
:100633004B30000C85423A854139854038853F3738
:10064300853A4A853949853848853747C200C2010A
:10065300E4F533F534F535F536020766E509B40DEF
:1006630014D201E4F54FF535F536AF3EAE3DAD3C62
:10067300AC3B020763E509640E600302072ED20157
:10068300D200E54B24F5601F14603114604324034A
:10069300705AAF4AAE49AD48AC47AB3AAA39A9380C
:1006A300A837120025803DAB3AAA39A938A837AF3D
:1006B3004AAE49AD48AC471200218028AF3AAE3963
:1006C300AD38AC37AB4AAA49A948A84712011680EE
:1006D30013AB3AAA39A938A837AF4AAE49AD48ACEB
:1006E3004712021F8F428E418D408C3FE4FFFEFD77
:1006F300FCAB42AA41A940A83F1202BCAF42AE41A3
:10070300AD40AC3F500512033580008F468E458DBA
:10071300448C4312089FC201E4F533F534F535F5F3
:1007230036F53AF539F538F5378038E509B40F333E
:10073300E4F533F534F535F536F53AF539F538F5AD
:1007430037F53EF53DF53CF53BF54CF542F541F506
:1007530040F53FF54BC200C201755801FFFEFDFC99
:0607630012089F85094CFD
:01076900226D
:100003007508FF120E35120D5A120D978F0812053F
:030013000180F376
:10001E000203F0E86480F8E933E83360110460F01D
:10002E00ED33EC337009E8FCE9FDEAFEEBFF220448
:10003E0060DED3EB9FEA9EE99DE8C2E78CF0C2F743
:10004E0095F0400CE8CCF8E9CDF9EACEFAEBCFFB0F
:10005E001203BB85D0F05804700320D5B3E80470AA
:10006E00075002B2D50203FA92D5EC0460F7E4CC45
:10007E00C0E0C398F8603B94186008400DD0E0FBD8
:10008E000203D2E4FBFAC9FC8028E830E406E4C996
:10009E00FBE4CAFCE830E305E4C9CACBFCE854072C
:1000AE006010F8C3E913F9EA13FAEB13FBEC13FC37
:1000BE00D8F130F52FC3E49CFCEF9BFFEE9AFEEDDA
:1000CE0099FDD0E0FBEF4E4D4C701222DB03020384
:1000DE00F7EC2CFCEF33FFEE33FEED33FDED30E7A6
:1000EE00EB0203D2EF2BFFEE3AFEED39FDD0E0FB33
:1000FE0050130BBB00030203FAED13FDEE13FEEFDC
:08010E0013FFEC13FC0203D205
:10011600EC4D6011E8497017ED33EC3304600DE4E3
:10012600FCFFFEFD22E933E8330470F80203F01207
:1001360003BB58046009E4CC248150062850090208
:1001460003FA2840030203F7C0E0EB4A7044B98083
:1001560006D0E0FB0203E6EF4E701CBD8008EBFF05
:10016600EAFEE9FD80EBE98DF0A4FEE5F00201FF71
:10017600E9CDF9EAFEEBFFEF89F0A4FCE5F0CE89C4
:10018600F0A42EFFE435F0CD89F0A42DFEE435F081
:100196008067EF4E7005BD80D780C3EF8BF0A4ACAF
:1001A600F0EE8BF0A42CFCE435F0F8EF8AF0A42CEA
:1001B600E5F038FCE433CB8DF0A42CFCE5F03BF8FD
:1001C600EE8AF0A42CFCE5F038F8E433CF89F0A4ED
:1001D6002CFCE5F038CF3400CE89F0A42FFFE5F0F3
:1001E6003EFEE433C98DF0A42EFEE5F039CD8AF04B
:1001F600A42FFFE5F03EFEE43DFD33D0E0FB5007C3
:100206000BBB000F0203FAEC2CFCEF33FFEE33FEC0
:06021600ED33FD0203D2EE
:10021C000203FAEC5D046005E8590470030203F074
:10022C001203BB580460F6EC4860F2EC7004FDFE5F
:10023C00FF22C860DB2481C85009C39860025006B5
:10024C000203F79850CAF582E9294B4A7005AB8234
:10025C000203E675F0007C1A7880C3EF9BEE9AEDF2
:10026C0099400DC3EF9BFFEE9AFEED99FDE842F02D
:10027C00DC23ACF0D0E0FFD0E0FED0E0FDAB822080
:10028C00E7101BEB60BAEC2CFCEF33FFEE33FEED0A
:10029C0033FD0203D2E803F830E705C0F075F00037
:1002AC00EF2FFFEE33FEED33FD40B830E7C280AAEE
:1002BC0074F8CC6480CCC86480C8F58204604FC3E9
:1002CC00EB9FF5F0EA9E42F0E99D42F0E89C45F088
:1002DC00603C501DE5825FFFE582D313CB5BCBF412
:1002EC002B5582FB50280ABA002409B9002008803B
:1002FC001DE5825BFBE582D313CF5FCFF4C3132FD5
:10030C005582FF50090EBE00050DBD00010CC3EB5C
:10031C009FF5F0EA9E42F0E99D42F0E89C45F060C2
:09032C0007CC4820E701B3EC22E4
:10033500ED33EC33600A047003BD8004ECB2E7FCD6
:010345002295
:1003460075F020800E75F010800575F0087D007E32
:10035600007F003392D530D5031204D3EC3340101E
:10036600EF33FFEE33FEED33FDEC33FCD5F0ED223B
:0E037600E5F0247EA2D513CC92E7CDCEFF2277
:10038400EDD2E7CD33EC3392D524814006E4FFFE71
:10039400FDFC22FCE4CFCECDCC24E0501174FF80D0
:1003A400EDC3CC13CCCD13CDCE13CECF13CF04706D
:0703B400F030D5DE0204D396
:1009D2008F138E128D118C10E4FFFE7D807C3FAB55
:1009E20013AA12A911A8101202BC7009AF13AE12F9
:1009F200AD11AC1022AF13AE12AD11AC1012040542
:100A0200FBAF17AE16AD15AC14120405FFBF0108FB
:100A1200E4FFFE7D807C3F22EF64046022EB6404ED
:100A2200601DBB0127E4FFFEFDFCAB17AA16A9154A
:100A3200A8141202BC60084006E4FFFEFDFC22740A
:100A4200FFF517F516F515F514020AE0E4F518F5A9
:100A520019FFFEFDFCAB13AA12A911A8101202BCC9
:100A6200504BAF17AE16AD15AC141203848E188F0F
:100A720019AC18AD19EC12034BC8ECC8C9EDC9CAC0
:100A8200EECACBEFCBAF17AE16AD15AC14120021E8
:100A9200E4FBFAF9F81202BC70A5AF13AE12AD1165
:100AA200AC101203358F138E128D118C10AF13AE52
:100AB20012AD11AC1012079EAB17AA16A915A814F5
:100AC200120116120BE78F178E168D158C14E5196D
:100AD20030E00B1203358F178E168D158C14AF175D
:070AE200AE16AD15AC1422A5
:1003BB00E9D2E7C933E833F892D5EDD2E7CD33EC88
:0703CB0033FC5002B2D52201
:1003D200EC30E7100FBF000C0EBE00080DBD00048C
:1003E2000BEB6014A2D5EB13FCED92E7FD2274FF38
:1003F200FCFDFEFF22E480F8A2D574FF13FC7D8091
:03040200E480EFA4
:10040500ED33EC33601004700FED547F700574020A
:0A04150092E0227404220422E42283
:100BAF0033DA929E35B16011377FE5FE39218489A2
:100BBF003AAEC3FF3C1D955B3D6358473E75FDF054
:100BCF003F3172183F800000C2D50203FA0203F0D2
:100BDF00BD80FA50F30203F7ED33EC330460F17B81
:100BEF003B7AAA79B8783F120116ED33EC3392D5E0
:100BFF00247B5011A2D570DB500BED4480240450A0
:100C0F0004A2D580CEEFFBEEFAEDF9ECF8120384D7
:100C1F00EFF582F404FC120350120025C082900BF2
:100C2F00AF740912042EED33CC33D0F092D525F0EA
:0A0C3F00A2D57001C313CC13FD22EF
:10076A003E9248DA3ECCCCCD3F2AAAAB40000000EC
:10077A003F8000003F9837F03FB504F33FD744FC71
:10078A003E3172173EB172173F0515913EDE5BD9B5
:10079A00D2028002C202EDD2E7F8CD33EC33047004
:1007AA000BBD800592D50203FA0203F040FBD31475
:1007BA0060F2F5F07C3FEE7A00C39496C8948B40C1
:1007CA00230AC89469C8941A401A0AC89468C89433
:1007DA001F40110AC8945AC89425400805F07A00A7
:1007EA00CDC2E7CDC0F08C1A8D1B8E1C8F1DEA235B
:1007FA0023C0E0247AF582E43407F5831204F11267
:10080A000025ECC0E0EDC0E0EEC0E0EFC0E012046D
:10081A00E1A81AA91BAA1CAB1D120021D0E0FBD02B
:10082A00E0FAD0E0F9D0E0B2E7F812021F8C1A8D94
:10083A001B8E1C8F1D90076A740312041FA81AA925
:10084A001BAA1CAB1D120116D0E0600F2486F5828C
:10085A00E43407F5831204F11200258C1A8D1B8EDD
:10086A001C8F1DD0E0C3947FFDE49400FC12034B5F
:10087A007B187A727931783F120116A81AA91BAA35
:10088A001CAB1D12002530020B7BD97A5B79DE780E
:05089A003E12011622D0
:10041F00C0E0EFFBEEFAEDF9ECF8120116D0E0F5C3
:10042F00F0EFFBEEFAEDF9ECF81204E1A3A3A3A3AE
:10043F00E8C0E0E9C0E0EAC0E0EBC0E0C0F01201C4
:10044F00161204F1A3A3A3A3120025D0F0D0E0FB52
:0D045F00D0E0FAD0E0F9D0E0F8D5F0D422DA
:03000000020C49A6
:0C0C4900787FE4F6D8FD75817A020C90EB
:10046C00EF8DF0A4A8F0CF8CF0A428CE8DF0A42EA4
:02047C00FE225E
:10047E00BC000BBE0029EF8DF084FFADF022E4CC62
:10048E00F875F008EF2FFFEE33FEEC33FCEE9DEC2B
:10049E00984005FCEE9DFE0FD5F0E9E4CEFD22ED71
:1004AE00F8F5F0EE8420D21CFEADF075F008EF2FBB
:1004BE00FFED33FD4007985006D5F0F222C398FDAC
:0504CE000FD5F0EA2249
:0E04D300C3E49FFFE49EFEE49DFDE49CFC223A
:1004E100E493FC740193FD740293FE740393FF2261
:1004F100E493F8740193F9740293FA740393FB2261
:100C5500020003E493A3F8E493A34003F68001F2B2
:100C650008DFF48029E493A3F85407240CC8C333A0
:100C7500C4540F4420C8834004F456800146F6DF6F
:100C8500E4800B0102040810204080900CD5E47E1E
:100C9500019360BCA3FF543F30E509541FFEE49364
:100CA500A360010ECF54C025E060A840B8E493A32B
:100CB500FAE493A3F8E493A3C8C582C8CAC583CA56
:100CC500F0A3C8C582C8CAC583CADFE9DEE780BE0E
:010D59000099
:00000001FF
