:08035900FFFAF7F3EFEAE7E316
:10029600012801012701011A010125000126000A92
:1002A6001B3F065B4F666D7D077F6F08123F3F4021
:1002B6003F3F403F3F010A00010B00010C00020DC9
:0902C6000000010FFF021000000E
:1002D000E4FDFCC3ED9FEC9E5015E4FBFA0BBB0064
:0F02E000010AEB647D4A70F50DBD00010C80E44E
:0102EF0022EC
:10025900782A7C007D007BFF7A0379597E007F082C
:100269001200EEAF09742A2FF8E6F5A074122FF8E0
:10027900E6F5807F017E001202D00509E5097002CA
:0C0289000508640845087004F508F50934
:010295002246
:1001A000050AE50AB43C14E4F50A050BE50BB43C7A
:1001B0000A050CE50CB41803E4F50CE50A75F00A21
:1001C00084741B25F0F8E6F519E50A75F00A842415
:1001D0001BF8E6F518E50B75F00A84741B25F0F89A
:1001E000E6F516E50B75F00A84241BF8E6F515E52F
:1001F0000C75F00A84741B25F0F8E6F513E50C7510
:10020000F00A84241BF8E6F512E50C700CE50B707F
:0902100008E50AB41E037526017D
:0102190022C2
:10030D00B2A5050EE50E7002050DB4580CE50DB441
:09031D000207E4F50DF50EF526CA
:0103260022B4
:1002F000E4F529E50F25E0FFA2B1E4334FF50FB493
:0C030000FF0475280122E50F7002F528AB
:01030C0022CE
:10033B00D28E758910758DFC758B18D2AFD2AB220E
:03001B0002021AC4
:0D021A00C0E0C0F0C0D075D000C000C0072B
:10022700758DFC758B181202F0E51AB401190511CA
:10023700E51170020510B4E80EE510B40309751056
:07024700007511001201A077
:0B024E00D007D000D0D0D0F0D0E032BC
:10032700E4F52AE5286527600AE5276003752501B6
:03033700852827EF
:01033A0022A0
:10000300E525B4010FE51A70047F0180027F008F9C
:050013001AE4F52522AE
:0E034B0012033B12025912032712000380F521
:03000000020114E6
:0C011400787FE4F6D8FD75813102015BB4
:10001E00E709F608DFFA8046E709F208DFFA803EC4
:10002E0088828C83E709F0A3DFFA8032E309F608B1
:10003E00DFFA8078E309F208DFFA807088828C8319
:10004E00E309F0A3DFFA806489828A83E0A3F608CD
:10005E00DFFA805889828A83E0A3F208DFFA804CA7
:10006E0080D280FA80C680D4806980F2803380107E
:10007E0080A680EA809A80A880DA80E280CA8033E7
:10008E0089828A83ECFAE493A3C8C582C8CCC5835F
:10009E00CCF0A3C8C582C8CCC583CCDFE9DEE7802F
:1000AE000D89828A83E493A3F608DFF9ECFAA9F0AE
:1000BE00EDFB2289828A83ECFAE0A3C8C582C8CC04
:1000CE00C583CCF0A3C8C582C8CCC583CCDFEADE1D
:1000DE00E880DB89828A83E493A3F208DFF980CC7F
:1000EE0088F0EF60010E4E60C388F0ED2402B40478
:1000FE000050B9F582EB2402B4040050AF2323451F
:06010E00822390006E73D5
:1001200002034BE493A3F8E493A34003F68001F2A7
:1001300008DFF48029E493A3F85407240CC8C333E0
:10014000C4540F4420C8834004F456800146F6DFAF
:10015000E4800B0102040810204080900296E47EA7
:10016000019360BCA3FF543F30E509541FFEE493A4
:10017000A360010ECF54C025E060A840B8E493A36B
:10018000FAE493A3F8E493A3C8C582C8CAC583CA96
:10019000F0A3C8C582C8CAC583CADFE9DEE780BE4E
:0102CF00002E
:00000001FF
