:08033000FFFAF7F3EFEAE7E33F
:1002900002230101022101010A173F065B4F666D2F
:1002A0007D077F6F080F3F3F403F3F403F3F010AC0
:0B02B00000010B00010C00020DFFFF1D
:10030000E4FDFCC3ED9FEC9E5015E4FBFA0BBB0033
:0F031000010AEB647D4A70F50DBD00010C80E41D
:01031F0022BB
:10021A0078257C007D007BFF7A0379307E007F0899
:10022A001200EEAF0974252FF8E6F5A0740F2FF827
:10023A00E6F5807F017E001203000509E5097002D8
:0C024A000508640845087004F508F50973
:010256002285
:1001A000EF64014E7004050A8008EF64024E70028D
:1001B000150AE50AB43C14E4F50A050BE50BB43C5A
:1001C0000A050CE50CB41803E4F50CE50A75F00A11
:1001D00084741725F0F8E6F516E50A75F00A84240C
:1001E00017F8E6F515E50B75F00A84741725F0F895
:1001F000E6F513E50B75F00A842417F8E6F512E529
:100200000C75F00A84741725F0F8E6F510E50C7506
:09021000F00A842417F8E6F50F4A
:0102190022C2
:10025700E50D25E0FFA2B1E4334FF50DE50E25E0EE
:10026700FFA2B0E4334FF50EE4FF740D2FF8E6FE5E
:10027700B4FF0874232FF876018009EE7006742303
:080287002FF8E4F60FBF02E2BC
:01028F00224C
:10032000D28E758910758DFC758B18D2AFD2AB2229
:03001B000202DFFF
:1002DF00C0E0C0D075D000C000C006C007758DFC4F
:1002EF00758B18120257D007D006D000D0D0D0E0AF
:0102FF0032CC
:1002BC00E4FFFE74212EF8E6FD74232EF8E6FC6DA7
:1002CC00600CED6003EE04FF74212EF8A6040EBE44
:0202DC0002E13D
:0102DE0022FD
:10000300E4FD12032012021A1202BCAD077E001295
:0400130001A080F1D7
:03000000020114E6
:0C011400787FE4F6D8FD75812C02015BB9
:10001E00E709F608DFFA8046E709F208DFFA803EC4
:10002E0088828C83E709F0A3DFFA8032E309F608B1
:10003E00DFFA8078E309F208DFFA807088828C8319
:10004E00E309F0A3DFFA806489828A83E0A3F608CD
:10005E00DFFA805889828A83E0A3F208DFFA804CA7
:10006E0080D280FA80C680D4806980F2803380107E
:10007E0080A680EA809A80A880DA80E280CA8033E7
:10008E0089828A83ECFAE493A3C8C582C8CCC5835F
:10009E00CCF0A3C8C582C8CCC583CCDFE9DEE7802F
:1000AE000D89828A83E493A3F608DFF9ECFAA9F0AE
:1000BE00EDFB2289828A83ECFAE0A3C8C582C8CC04
:1000CE00C583CCF0A3C8C582C8CCC583CCDFEADE1D
:1000DE00E880DB89828A83E493A3F208DFF980CC7F
:1000EE0088F0EF60010E4E60C388F0ED2402B40478
:1000FE000050B9F582EB2402B4040050AF2323451F
:06010E00822390006E73D5
:10012000020003E493A3F8E493A34003F68001F2F2
:1001300008DFF48029E493A3F85407240CC8C333E0
:10014000C4540F4420C8834004F456800146F6DFAF
:10015000E4800B0102040810204080900290E47EAD
:10016000019360BCA3FF543F30E509541FFEE493A4
:10017000A360010ECF54C025E060A840B8E493A36B
:10018000FAE493A3F8E493A3C8C582C8CAC583CA96
:10019000F0A3C8C582C8CAC583CADFE9DEE780BE4E
:0102BB000042
:00000001FF
