:0803F000FFFAF7F3EFEAE7E37F
:1002F200042E01010101042A01010101011D010174
:1003020028000129000A1E3F065B4F666D7D077FAC
:100312006F08153F3F403F3F403F3F010A00010B3E
:1003220000010C00020D0000040FFFFFFFFF02138B
:020332000000C9
:10039800E4FDFCC3ED9FEC9E5015E4FBFA0BBB009B
:0F03A800010AEB647D4A70F50DBD00010C80E485
:0103B7002223
:1003350078327C007D007BFF7A0379F07E007F08B0
:100345001200EEAF0974322FF8E6F5A074152FF8F8
:10035500E6F5807F017E00120398E4F5800509E546
:0F0365000970020508640845087004F508F509D9
:010374002266
:10011400E51D703EE528603CB4020EE50AB43B05DB
:10012400E4F50A8028050A8024E528B4030EE50BCB
:10013400B43B05E4F50B8015050B8011E528B404E8
:100144000CE50CB41705E4F50C8002050CE4F52865
:100154008002050AE50AB43C14E4F50A050BE50B34
:10016400B43C0A050CE50CB41803E4F50CE50A7577
:10017400F00A84741E25F0F8E6F51CE50A75F00A09
:1001840084241EF8E6F51BE50B75F00A84741E251D
:10019400F0F8E6F519E50B75F00A84241EF8E6F587
:1001A40018E50C75F00A84741E25F0F8E6F516E5DA
:1001B4000C75F00A84241EF8E6F515E50C700CE5C0
:0B01C4000B7008E50AB41E037529014A
:0101CF00220D
:1003B800B2A5050EE50E7002050DB4580CE50DB496
:0903C8000207E4F50DF50EF5291C
:0103D1002209
:10025C00E50F25E0FFA2B1E4334FF50FE51025E0E3
:10026C00FFA2B0E4334FF510E51125E0FFA2B2E494
:10027C00334FF511E51225E0FFA2B3E4334FF5122D
:10028C00E4FF740F2FF8E6FEB4FF08742E2FF876F7
:10029C00018009EE7006742E2FF8E4F60FBF04E20D
:0102AC00222F
:1003D200D28E758910758DFC758B18D2AFD2AB2277
:03001B000202AD31
:0F02AD00C0E0C0F0C0D075D000C000C006C007D0
:1002BC00758DFC758B1812025C0514E51470020523
:1002CC0013B4E80EE513B40309751300751400128A
:0902DC000114E52960031203B8C6
:0D02E500D007D006D000D0D0D0F0D0E0324D
:10037500E4FF742A2FF8E6FE742E2FF8E6FD6E6072
:100385000DEE6004EF04F528742A2FF8A6050FBFBB
:0203950004E082
:010397002243
:10000300E528B4010FE51D70047F0180027F008F96
:050013001DE4F52822A8
:0E03E2001203D212033512037512000380F5C8
:030000000201D02A
:0C01D000787FE4F6D8FD75813902021733
:10001E00E709F608DFFA8046E709F208DFFA803EC4
:10002E0088828C83E709F0A3DFFA8032E309F608B1
:10003E00DFFA8078E309F208DFFA807088828C8319
:10004E00E309F0A3DFFA806489828A83E0A3F608CD
:10005E00DFFA805889828A83E0A3F208DFFA804CA7
:10006E0080D280FA80C680D4806980F2803380107E
:10007E0080A680EA809A80A880DA80E280CA8033E7
:10008E0089828A83ECFAE493A3C8C582C8CCC5835F
:10009E00CCF0A3C8C582C8CCC583CCDFE9DEE7802F
:1000AE000D89828A83E493A3F608DFF9ECFAA9F0AE
:1000BE00EDFB2289828A83ECFAE0A3C8C582C8CC04
:1000CE00C583CCF0A3C8C582C8CCC583CCDFEADE1D
:1000DE00E880DB89828A83E493A3F208DFF980CC7F
:1000EE0088F0EF60010E4E60C388F0ED2402B40478
:1000FE000050B9F582EB2402B4040050AF2323451F
:06010E00822390006E73D5
:1001DC000203E2E493A3F8E493A34003F68001F254
:1001EC0008DFF48029E493A3F85407240CC8C33324
:1001FC00C4540F4420C8834004F456800146F6DFF3
:10020C00E4800B01020408102040809002F2E47E8E
:10021C00019360BCA3FF543F30E509541FFEE493E7
:10022C00A360010ECF54C025E060A840B8E493A3AE
:10023C00FAE493A3F8E493A3C8C582C8CAC583CAD9
:10024C00F0A3C8C582C8CAC583CADFE9DEE780BE91
:0103340000C8
:00000001FF
