:0404D2007F047E0025
:1004D600D3EF9400EE94004007EF1F70F31E80F0F8
:0104E60022F3
:1003E000E4FDD2B77F08FE1204D6C2B77F507E006C
:1003F0001204D6D2B77F087E001204D6A2B7E43327
:06040000FD1204D2AF055D
:0104060022D3
:10048900E4FC7D08C2B7ECC313FCD2B730B7034311
:0904990004801204D2DDEDAF0471
:0104A2002237
:02046D00AD07D9
:10046F007B08C2B7ED1392B71204D2D2B7EDC31304
:0A047F00FDDBEF7F047E000204D6CF
:10033500E4F9FCFFFE1203E07E00EF6002803B7FE4
:10034500CC12046D7F4412046D1203E07E00EF6051
:100355000280277FCC12046D7FBE12046D120489C2
:10036500A907120489EFFEE9FFD39400EE9400403B
:1003750009D3EF9400EE940940057EFF7FFF22AD7F
:1003850007AC06E4120206E4FBFA7920783F120076
:0D039500FBE4FBFAF9783F12000A12023F68
:0103A2002238
:0404E700D2A77F0217
:1004EB00E4FEEEC39F5009E4FD0DBD7DFC0E80F2D2
:0104FB0022DE
:0E051000C2A6D2A41204E7E5805480FFC2A761
:01051E0022BA
:1004BC00AB07AA06120510EF70FAC2A6C2A48B8075
:0604CC001204E7C2A722A2
:1004FC00AC07120510EF70FAD2A6C2A48C801204BD
:04050C00E7C2A72279
:10042E007F387E001204BC7F0C7E001204BC7F0657
:10043E007E001204BC7F017E001204BC7F0A0204FF
:01044E00EBC2
:1004A300E4FEEF7006ED2480FE8007BF0104ED2417
:0904B300C0FEAF067E000204BC8D
:080407008E0D8F0E8C0F8D107D
:10040F007F017E00E4FBEBC39510E50F6480F87469
:0E041F008098500AAC0DAD0E1202C00B80E8A2
:01042D0022AC
:0403A3008A0A8B0B2C
:1003A7001204A3AA0CEAD39400402DEA24FFFDE42B
:1003B70034FFFC7F0A7E00120407AC0AAD0BCFCDD9
:1003C700CFCECCCE1202D27C007D0A1202D2ED240F
:0803D70030FF1204FC1A80CD76
:0103DF0022FB
:10044F001203E0EF70FA12042E120335A907E9FB2D
:0E045F007A00750C027D05E4FF1203A380EB0A
:100003000202ABE86480F8E933E83360110460F07E
:10001300ED33EC337009E8FCE9FDEAFEEBFF220463
:1000230060DED3EB9FEA9EE99DE8C2E78CF0C2F75E
:1000330095F0400CE8CCF8E9CDF9EACEFAEBCFFB2A
:1000430012027685D0F05804700320D5B3E804700B
:10005300075002B2D50202B592D5EC0460F7E4CCA6
:10006300C0E0C398F8603B94186008400DD0E0FBF3
:1000730002028DE4FBFAC9FC8028E830E406E4C9F7
:10008300FBE4CAFCE830E305E4C9CACBFCE8540747
:100093006010F8C3E913F9EA13FAEB13FBEC13FC52
:1000A300D8F130F52FC3E49CFCEF9BFFEE9AFEEDF5
:1000B30099FDD0E0FBEF4E4D4C701222DB030202A0
:1000C300B2EC2CFCEF33FFEE33FEED33FDED30E706
:1000D300EB02028DEF2BFFEE3AFEED39FDD0E0FB94
:1000E30050130BBB00030202B5ED13FDEE13FEEF3D
:0800F30013FFEC13FC02028D67
:1000FB00EC4D6011E8497017ED33EC3304600DE4FF
:10010B00FCFFFEFD22E933E8330470F80202AB1268
:10011B00027658046009E4CC248150062850090269
:10012B0002B52840030202B2C0E0EB4A7044B9802A
:10013B0006D0E0FB0202A1EF4E701CBD8008EBFF66
:10014B00EAFEE9FD80EBE98DF0A4FEE5F00201E4A7
:10015B00E9CDF9EAFEEBFFEF89F0A4FCE5F0CE89DF
:10016B00F0A42EFFE435F0CD89F0A42DFEE435F09C
:10017B008067EF4E7005BD80D780C3EF8BF0A4ACCA
:10018B00F0EE8BF0A42CFCE435F0F8EF8AF0A42C05
:10019B00E5F038FCE433CB8DF0A42CFCE5F03BF818
:1001AB00EE8AF0A42CFCE5F038F8E433CF89F0A408
:1001BB002CFCE5F038CF3400CE89F0A42FFFE5F00E
:1001CB003EFEE433C98DF0A42EFEE5F039CD8AF066
:1001DB00A42FFFE5F03EFEE43DFD33D0E0FB5007DE
:1001EB000BBB000F0202B5EC2CFCEF33FFEE33FE22
:0601FB00ED33FD02028D50
:1002010075F020800E75F010800575F0087D007E78
:10021100007F003392D530D503120327EC33401011
:10022100EF33FFEE33FEED33FDEC33FCD5F0ED2281
:0E023100E5F0247EA2D513CC92E7CDCEFF22BD
:10023F00EDD2E7CD33EC3392D524814006E4FFFEB7
:10024F00FDFC22FCE4CFCECDCC24E0501174FF8016
:10025F00EDC3CC13CCCD13CDCE13CECF13CF0470B3
:07026F00F030D5DE02032789
:10027600E9D2E7C933E833F892D5EDD2E7CD33ECCE
:0702860033FC5002B2D52247
:10028D00EC30E7100FBF000C0EBE00080DBD0004D2
:10029D000BEB6014A2D5EB13FCED92E7FD2274FF7E
:1002AD00FCFDFEFF22E480F8A2D574FF13FC7D80D7
:0302BD00E480EFEB
:0300000002051FD7
:0C051F00787FE4F6D8FD75811002044FCF
:1002C000EF8DF0A4A8F0CF8CF0A428CE8DF0A42E52
:0202D000FE220C
:1002D200BC000BBE0029EF8DF084FFADF022E4CC10
:1002E200F875F008EF2FFFEE33FEEC33FCEE9DECD9
:1002F200984005FCEE9DFE0FD5F0E9E4CEFD22ED1F
:10030200F8F5F0EE8420D21CFEADF075F008EF2F68
:10031200FFED33FD4007985006D5F0F222C398FD59
:050322000FD5F0EA22F6
:0E032700C3E49FFFE49EFEE49DFDE49CFC22E7
:00000001FF
