:0701170001080002090000CD
:09010E007F027E0012008F80F7D1
:10008F00EF4E700EAF0804A807088002C333D8FCE8
:10009F008013EF64014E7012AF087480A8070880B8
:1000AF0002C313D8FCF4F5A0802CE50A4509700EA5
:1000BF00AF0804A807088002C333D8FC800DAF082F
:1000CF007480A807088002C313D8FCF4F5A0E508D4
:1000DF00B40703630A017F641200F50508E508B44D
:0500EF000803E4F50820
:0100F40022E9
:1000F500E4FEEEC39F5011E4FCFD0DBD00010CEDC7
:08010500647D4C70F50E80EAE8
:01010D0022CF
:03000000020003F8
:0C000300787FE4F6D8FD75810A02004AFF
:10000F0002010EE493A3F8E493A34003F68001F2F8
:10001F0008DFF48029E493A3F85407240CC8C333F2
:10002F00C4540F4420C8834004F456800146F6DFC1
:10003F00E4800B0102040810204080900117E47E39
:10004F00019360BCA3FF543F30E509541FFEE493B6
:10005F00A360010ECF54C025E060A840B8E493A37D
:10006F00FAE493A3F8E493A3C8C582C8CAC583CAA8
:10007F00F0A3C8C582C8CAC583CADFE9DEE780BE60
:01011E0000E0
:00000001FF
