:100232000A193F065B4F666D7D077F6F08103F3FCF
:10024200403F3F403F3F0118000108000109000103
:0F0252000A00010B00010C00020D0000010F005B
:10026200E4FDFCC3ED9FEC9E5015E4FBFA0BBB00D2
:0F027200010AEB647D4A70F50DBD00010C80E4BC
:01028100225A
:1001BD00C374089508FF74FEA807088002C313D8FE
:1001CD00FCFFAE0874FEA806088002C333D8FC4FAE
:1001DD00F5B074102508F8E6F5A07F017E00120237
:0E01ED0062E4F5A00508E508B40803E4F5088F
:0101FB0022E1
:10001E000509E509B43C14E4F509050AE50AB43C02
:10002E000A050BE50BB41803E4F50BE50975F00AA8
:10003E0084741925F0F8E6F517E50975F00A84249D
:10004E0019F8E6F516E50A75F00A84741925F0F824
:10005E00E6F514E50A75F00A842419F8E6F513E5B9
:10006E000B75F00A84741925F0F8E6F511E50B7599
:10007E00F00A842419F8E6F510E50B700CE50A7009
:10008E0008E509B41E03751801E50B700CE50AB4FA
:10009E000107E5097003751802E50B700DE50AB44A
:1000AE000108E509B41E03751803E50B700BE50A8C
:0900BE00B40206E5097002F51810
:0100C7002216
:10015400EF64014E700EAF0C04A807088002C3338D
:10016400D8FC8013EF64024E7012AF0C7480A807A1
:10017400088002C313D8FCF4F5908032EF64034E78
:10018400702CE50E450D700EAF0C04A80708800214
:10019400C333D8FC800DAF0C7480A807088002C359
:1001A40013D8FCF4F590E50CB40703630E01050CB9
:0801B400E50CB40803E4F50CAE
:0101BC002220
:10000300D28E758910758D3C758BB0D2AFD2AB2271
:03001B000201FCE3
:0F01FC00C0E0C0F0C0D075D000C000C006C00782
:10020B00758D3C758BB0050FE50FB41406750F009B
:0A021B0012001EAF187E00120154FD
:0D022500D007D006D000D0D0D0F0D0E0320D
:080013001200031201BD80FB85
:030000000200C833
:0C00C800787FE4F6D8FD75812202010F5C
:1000D400020013E493A3F8E493A34003F68001F22F
:1000E40008DFF48029E493A3F85407240CC8C3332D
:1000F400C4540F4420C8834004F456800146F6DFFC
:10010400E4800B0102040810204080900232E47E57
:10011400019360BCA3FF543F30E509541FFEE493F0
:10012400A360010ECF54C025E060A840B8E493A3B7
:10013400FAE493A3F8E493A3C8C582C8CAC583CAE2
:10014400F0A3C8C582C8CAC583CADFE9DEE780BE9A
:01026100009C
:00000001FF
