:0802B100FFFAF7F3EFEAE7E3BF
:10026E000A163F065B4F666D7D077F6F080E3F3F98
:10027E00403F3F403F3F010A00010B00010C0001CF
:02028E000D0061
:10029100E4FDFCC3ED9FEC9E5015E4FBFA0BBB00A3
:0F02A100010AEB647D4A70F50DBD00010C80E48D
:0102B000222B
:10020A0078207C007D007BFF7A0279B17E007F082E
:10021A001200EEAF0974202FF8E6F5A0740E2FF83D
:10022A00E6F5807F017E001202910509E509700258
:0C023A000508640845087004F508F50983
:010246002295
:1001A000050AE50AB43C14E4F50A050BE50BB43C7A
:1001B0000A050CE50CB41803E4F50CE50A75F00A21
:1001C00084741625F0F8E6F515E50A75F00A84241E
:1001D00016F8E6F514E50B75F00A84741625F0F8A8
:1001E000E6F512E50B75F00A842416F8E6F511E53C
:1001F0000C75F00A84741625F0F8E6F50FE50C7519
:09020000F00A842416F8E6F50E5C
:0102090022D2
:10000300D28E758910758D3C758BB0D2AFD2AB2271
:03001B0002024797
:0B024700C0E0C0F0C0D075D000C000C7
:10025200758D3C758BB0050DE50DB41406750D005A
:030262001201A0E6
:09026500D000D0D0D0F0D0E0327E
:0800130012000312020A80FB37
:03000000020114E6
:0C011400787FE4F6D8FD75812702015BBE
:10001E00E709F608DFFA8046E709F208DFFA803EC4
:10002E0088828C83E709F0A3DFFA8032E309F608B1
:10003E00DFFA8078E309F208DFFA807088828C8319
:10004E00E309F0A3DFFA806489828A83E0A3F608CD
:10005E00DFFA805889828A83E0A3F208DFFA804CA7
:10006E0080D280FA80C680D4806980F2803380107E
:10007E0080A680EA809A80A880DA80E280CA8033E7
:10008E0089828A83ECFAE493A3C8C582C8CCC5835F
:10009E00CCF0A3C8C582C8CCC583CCDFE9DEE7802F
:1000AE000D89828A83E493A3F608DFF9ECFAA9F0AE
:1000BE00EDFB2289828A83ECFAE0A3C8C582C8CC04
:1000CE00C583CCF0A3C8C582C8CCC583CCDFEADE1D
:1000DE00E880DB89828A83E493A3F208DFF980CC7F
:1000EE0088F0EF60010E4E60C388F0ED2402B40478
:1000FE000050B9F582EB2402B4040050AF2323451F
:06010E00822390006E73D5
:10012000020013E493A3F8E493A34003F68001F2E2
:1001300008DFF48029E493A3F85407240CC8C333E0
:10014000C4540F4420C8834004F456800146F6DFAF
:10015000E4800B010204081020408090026EE47ECF
:10016000019360BCA3FF543F30E509541FFEE493A4
:10017000A360010ECF54C025E060A840B8E493A36B
:10018000FAE493A3F8E493A3C8C582C8CAC583CA96
:10019000F0A3C8C582C8CAC583CADFE9DEE780BE4E
:01029000006D
:00000001FF
