:0B000E003F065B4F666D7D077F6F00B3
:1004EF00C100011200011100011300011400010FDE
:1004FF0000011000031C0101010319010101041582
:10050F00000000000108000309FFFFFF010C0102BA
:03051F000D0000CC
:060237008F23AB05AA04B1
:10023D007C007D64AF03AE02120052AD237C001230
:10024D0000408E248F25C3EB9525F527EA9524F5DF
:10025D0026AF27AB07FAE4C39BFFE49AFE74019423
:10026D0000FDE49400FC78081200A78F13E4C39BF3
:10027D00FFE49AFE74019400FDE49400FCE4FB7A23
:10028D0001F9F812046EAF038F14AE24AF25AB073E
:10029D00AA06E4C39BFFE49AFE74019400FDE49466
:1002AD0000FC78081200A78F0FE4C39BFFE49AFEB1
:1002BD0074019400FDE49400FCE4FB7A01F9F8125A
:0602CD00046EAF038F1068
:0102D3002208
:10054800E4FDFCEFFBC3ED9BEC94005015E4FBFAD3
:100558000BBB00010AEB647D4A70F50DBD00010C70
:0205680080E130
:01056A00226E
:1004B200C374089508FF74FEA807088002C313D806
:1004C200FCFFAE0874FEA806088002C333D8FC4FB6
:1004D200F5A074152508F8E6F5807F01120548E4B9
:0C04E200F5800508E508B40403E4F50803
:0104EE0022EB
:10058900758911D28CC28E758CF8758A30D2AFD22A
:04059900A9D2AB2216
:100360001512C3E51264809480500575123B151177
:10037000E51275F00A12001EAFF0EF3395E0FE743F
:100380000E2FF58274003EF583E493F518E512759F
:10039000F00A12001EFF3395E0FE740E2FF58274F2
:1003A000003EF583E493F517E51175F00A84E5F056
:1003B00090000E93F516E51175F00A8493F515E596
:0C03C000127008E5117004C2B0C20022E7
:10052300E4FFFE74192FF8E6FD741C2FF8E6FC6D4A
:10053300600CED6003EF04FE74192FF8A6040FBFDF
:0405430003E1AF061B
:010547002291
:10042900E50925E0FFA290E4334FF509E50A25E047
:10043900FFA291E4334FF50AE50B25E0FFA292E410
:10044900334FF50BE4FF74092FF8E6FEB4FF087487
:100459001C2FF876018009EE7006741C2FF8E4F65B
:040469000FBF03E2DC
:01046D00226C
:020189008F22C3
:10018B00E522B4010BB28E308E03020236C2B022CE
:10019B00E522B4021E208E03020236050CE50CB4D8
:1001AB000403750C01E50C75F014A4FF7D107C277E
:1001BB00020237E52264037072D20005110511E5C6
:1001CB0011D394084005E4F511C200300050E5123C
:1001DB0075F00A12001EAFF0EF3395E0FE740E2F90
:1001EB00F58274003EF583E493F518E51275F00A79
:1001FB0012001EFF3395E0FE740E2FF58274003E45
:10020B00F583E493F517E51175F00A84E5F090009A
:10021B000E93F516E51175F00A8493F51522E4F5A6
:0B022B0018F517F516F515F512F51182
:0102360022A5
:10056B00E4F521120589C2B07D107C277F1412029D
:0E057B00371204B21205238F2112018980F37A
:03000B000203CC21
:1003CC00C0E0C0F0C083C082C0D075D000C000C0F7
:0D03DC0001C002C003C004C005C006C00778
:1003E900758CF8758A30120429300019050EE50E4E
:1003F9007002050DB4F40EE50DB40109750D007513
:050409000E001203606B
:10040E00D007D006D005D004D003D002D001D00042
:0B041E00D0D0D082D083D0F0D0E032EC
:03001B0002059D3E
:10059D0030B00885138D85148B8006850F8D8510E1
:0405AD008BB2B0322B
:030000000202D425
:0C02D400787FE4F6D8FD75812702031B3B
:10001E00C2D530F707B2D563F0FF05F030E70CB26A
:10002E00D5F4048463F0FF05F080018430D502F42A
:02003E0004229A
:10004000EF8DF0A4A8F0CF8CF0A428CE8DF0A42ED4
:02005000FE228E
:10005200BC000BBE0029EF8DF084FFADF022E4CC92
:10006200F875F008EF2FFFEE33FEEC33FCEE9DEC5B
:10007200984005FCEE9DFE0FD5F0E9E4CEFD22EDA1
:10008200F8F5F0EE8420D21CFEADF075F008EF2FEB
:10009200FFED33FD4007985006D5F0F222C398FDDC
:0500A2000FD5F0EA2279
:10046E00C2D5E830E70FB2D5E4C39BFBE49AFAE4B9
:10047E0099F9E498F8EC30E717B2D51204A41200FB
:10048E00F7E4C39BFBE49AFAE499F9E498F8800345
:10049E001200F730D50DE4C39FFFE49EFEE49DFDF0
:0404AE00E49CFC22AC
:1000A700E86010ECA2E713FCED13FDEE13FEEF136F
:0400B700FFD8F0225C
:1002E00002056BE493A3F8E493A34003F68001F2C4
:1002F00008DFF48029E493A3F85407240CC8C3331F
:10030000C4540F4420C8834004F456800146F6DFED
:10031000E4800B01020408102040809004EFE47E8A
:10032000019360BCA3FF543F30E509541FFEE493E2
:10033000A360010ECF54C025E060A840B8E493A3A9
:10034000FAE493A3F8E493A3C8C582C8CAC583CAD4
:10035000F0A3C8C582C8CAC583CADFE9DEE780BE8C
:0105220000D8
:1000BB0075F008758200EF2FFFEE33FECD33CDCCFC
:1000CB0033CCC58233C5829BED9AEC99E58298407F
:1000DB000CF582EE9BFEED9AFDEC99FC0FD5F0D65C
:1000EB00E4CEFBE4CDFAE4CCF9A88222B800C1B986
:1000FB000059BA002DEC8BF084CFCECDFCE5F0CBC4
:10010B00F97818EF2FFFEE33FEED33FDEC33FCEBFC
:10011B0033FB10D703994004EB99FB0FD8E5E4F9B7
:10012B00FA227818EF2FFFEE33FEED33FDEC33FCA4
:10013B00C933C910D7059BE99A4007EC9BFCE99A98
:10014B00F90FD8E0E4C9FAE4CCFB2275F010EF2FDD
:10015B00FFEE33FEED33FDCC33CCC833C810D707DD
:10016B009BEC9AE899400AED9BFDEC9AFCE899F818
:0E017B000FD5F0DAE4CDFBE4CCFAE4C8F922AB
:00000001FF
