:08031D005F4B37230523374B2A
:10000300020F000002110000020B0000020D0000AD
:0700130002080000010A00D1
:060167008F13AB05AA0492
:10016D007C007D64AF03AE02120030AD137C001233
:10017D00001E8E148F15C3EB9515F517EA9514F522
:10018D0016AF17AB07FAE4C39BFFE49AFE74019414
:10019D0000FDE49400FC78081200858E0F8F10E4AA
:1001AD00C39BFFE49AFE74019400FDE49400FCE40B
:1001BD00FB7A01F9F812029CAE02AF038E118F1279
:1001CD00AE14AF15AB07AA06E4C39BFFE49AFE7409
:1001DD00019400FDE49400FC78081200858E0B8FCD
:1001ED000CE4C39BFFE49AFE74019400FDE49400BB
:1001FD00FCE4FB7A01F9F812029CAE02AF038E0DFE
:02020D008F0E52
:01020F0022CC
:0F030000D28E758910E4F58DF58BD2AFD2AB227A
:03001B000202E0FE
:0202E000C0E07C
:1002E20030A00885108D85128B8006850C8D850EB9
:0B02F2008BB2A00509E50970020508A9
:0302FD00D0E0321C
:0E030F001203007D107C277F1412016780FE10
:03000000020210E9
:0C021000787FE4F6D8FD758117020257D4
:10001E00EF8DF0A4A8F0CF8CF0A428CE8DF0A42EF6
:02002E00FE22B0
:10003000BC000BBE0029EF8DF084FFADF022E4CCB4
:10004000F875F008EF2FFFEE33FEEC33FCEE9DEC7D
:10005000984005FCEE9DFE0FD5F0E9E4CEFD22EDC3
:10006000F8F5F0EE8420D21CFEADF075F008EF2F0D
:10007000FFED33FD4007985006D5F0F222C398FDFE
:050080000FD5F0EA229B
:10029C00C2D5E830E70FB2D5E4C39BFBE49AFAE48D
:1002AC0099F9E498F8EC30E717B2D51202D21200A3
:1002BC00D5E4C39BFBE49AFAE499F9E498F880033B
:1002CC001200D530D50DE4C39FFFE49EFEE49DFDE6
:0402DC00E49CFC2280
:10008500E86010ECA2E713FCED13FDEE13FEEF1391
:04009500FFD8F0227E
:10021C0002030FE493A3F8E493A34003F68001F2E6
:10022C0008DFF48029E493A3F85407240CC8C333E3
:10023C00C4540F4420C8834004F456800146F6DFB2
:10024C00E4800B0102040810204080900003E47E3F
:10025C00019360BCA3FF543F30E509541FFEE493A7
:10026C00A360010ECF54C025E060A840B8E493A36E
:10027C00FAE493A3F8E493A3C8C582C8CAC583CA99
:10028C00F0A3C8C582C8CAC583CADFE9DEE780BE51
:01001A0000E5
:1000990075F008758200EF2FFFEE33FECD33CDCC1E
:1000A90033CCC58233C5829BED9AEC99E5829840A1
:1000B9000CF582EE9BFEED9AFDEC99FC0FD5F0D67E
:1000C900E4CEFBE4CDFAE4CCF9A88222B800C1B9A8
:1000D9000059BA002DEC8BF084CFCECDFCE5F0CBE6
:1000E900F97818EF2FFFEE33FEED33FDEC33FCEB1F
:1000F90033FB10D703994004EB99FB0FD8E5E4F9DA
:10010900FA227818EF2FFFEE33FEED33FDEC33FCC6
:10011900C933C910D7059BE99A4007EC9BFCE99ABA
:10012900F90FD8E0E4C9FAE4CCFB2275F010EF2FFF
:10013900FFEE33FEED33FDCC33CCC833C810D707FF
:100149009BEC9AE899400AED9BFDEC9AFCE899F83A
:0E0159000FD5F0DAE4CDFBE4CCFAE4C8F922CD
:00000001FF
