:08025000FFFAF7F3EFEAE7E320
:10022A000A133F065B4F666D7D077F6F080B3F3FE2
:09023A003F3F3F3F3F3F010A0036
:10020A00E4FDFCC3ED9FEC9E5015E4FBFA0BBB002A
:0F021A00010AEB647D4A70F50DBD00010C80E414
:0102290022B2
:10018500781E7C007D007BFF7A0279507E007F0817
:100195001200D3AF09741E2FF8E6F5A0740B2FF8E3
:1001A500E6F5807F017E0012020A0509E509700265
:0C01B5000508640845087004F508F50909
:0101C100221B
:1001C200050AE50AB46403E4F50AE50A75F00A844F
:1001D200741325F0F8E6F512E50A75F00A84241383
:0401E200F8E6F51135
:0101E60022F6
:0C024400D28E758910758C3C758AB02232
:1001E700E4F51D120244120185308F0AC28F758C07
:1001F7003C758AB0051DE51DB414EBE4F51D12012D
:03020700C280E3CF
:030000000200F902
:0C00F900787FE4F6D8FD758125020140F7
:10000300E709F608DFFA8046E709F208DFFA803EDF
:1000130088828C83E709F0A3DFFA8032E309F608CC
:10002300DFFA8078E309F208DFFA807088828C8334
:10003300E309F0A3DFFA806489828A83E0A3F608E8
:10004300DFFA805889828A83E0A3F208DFFA804CC2
:1000530080D280FA80C680D4806980F28033801099
:1000630080A680EA809A80A880DA80E280CA803302
:1000730089828A83ECFAE493A3C8C582C8CCC5837A
:10008300CCF0A3C8C582C8CCC583CCDFE9DEE7804A
:100093000D89828A83E493A3F608DFF9ECFAA9F0C9
:1000A300EDFB2289828A83ECFAE0A3C8C582C8CC1F
:1000B300C583CCF0A3C8C582C8CCC583CCDFEADE38
:1000C300E880DB89828A83E493A3F208DFF980CC9A
:1000D30088F0EF60010E4E60C388F0ED2402B40493
:1000E3000050B9F582EB2402B4040050AF2323453A
:0600F3008223900053730C
:100105000201E7E493A3F8E493A34003F68001F228
:1001150008DFF48029E493A3F85407240CC8C333FB
:10012500C4540F4420C8834004F456800146F6DFCA
:10013500E4800B010204081020408090022AE47E2E
:10014500019360BCA3FF543F30E509541FFEE493BF
:10015500A360010ECF54C025E060A840B8E493A386
:10016500FAE493A3F8E493A3C8C582C8CAC583CAB1
:10017500F0A3C8C582C8CAC583CADFE9DEE780BE69
:0102430000BA
:00000001FF
