:10016A003F065B4F666D7D077F6F00000000000051
:10014A00E4FDFCC3ED9FEC9E5015E4FBFA0BBB00EB
:0F015A00010AEB647D4A70F50DBD00010C80E4D5
:010169002273
:1000F90078087C007D007BFF7A01796A7E007F1099
:050109001200D3E4F92F
:10010E0075A0FF740829F8E6F580E9C39405401D33
:10011E00E9D3940A5017E4F518B2A77F327E001285
:10012E00014A0518E518C3941440EE80077FE87E57
:0A013E000312014A09B90AC8E4F9E6
:0201480080C471
:0300000002017A80
:0C017A00787FE4F6D8FD7581180200F9CA
:10000300E709F608DFFA8046E709F208DFFA803EDF
:1000130088828C83E709F0A3DFFA8032E309F608CC
:10002300DFFA8078E309F208DFFA807088828C8334
:10003300E309F0A3DFFA806489828A83E0A3F608E8
:10004300DFFA805889828A83E0A3F208DFFA804CC2
:1000530080D280FA80C680D4806980F28033801099
:1000630080A680EA809A80A880DA80E280CA803302
:1000730089828A83ECFAE493A3C8C582C8CCC5837A
:10008300CCF0A3C8C582C8CCC583CCDFE9DEE7804A
:100093000D89828A83E493A3F608DFF9ECFAA9F0C9
:1000A300EDFB2289828A83ECFAE0A3C8C582C8CC1F
:1000B300C583CCF0A3C8C582C8CCC583CCDFEADE38
:1000C300E880DB89828A83E493A3F208DFF980CC9A
:1000D30088F0EF60010E4E60C388F0ED2402B40493
:1000E3000050B9F582EB2402B4040050AF2323453A
:0600F3008223900053730C
:00000001FF
